{
  "contractName": "Ryfts",
  "abi": [
    {
      "constant": true,
      "inputs": [],
      "name": "collectedEthers",
      "outputs": [
        {
          "name": "",
          "type": "uint256"
        }
      ],
      "payable": false,
      "stateMutability": "view",
      "type": "function"
    },
    {
      "constant": true,
      "inputs": [],
      "name": "whitelistActive",
      "outputs": [
        {
          "name": "",
          "type": "bool"
        }
      ],
      "payable": false,
      "stateMutability": "view",
      "type": "function"
    },
    {
      "constant": true,
      "inputs": [],
      "name": "name",
      "outputs": [
        {
          "name": "",
          "type": "string"
        }
      ],
      "payable": false,
      "stateMutability": "view",
      "type": "function"
    },
    {
      "constant": false,
      "inputs": [
        {
          "name": "_spender",
          "type": "address"
        },
        {
          "name": "_value",
          "type": "uint256"
        }
      ],
      "name": "approve",
      "outputs": [
        {
          "name": "",
          "type": "bool"
        }
      ],
      "payable": false,
      "stateMutability": "nonpayable",
      "type": "function"
    },
    {
      "constant": true,
      "inputs": [],
      "name": "creationBlock",
      "outputs": [
        {
          "name": "",
          "type": "uint256"
        }
      ],
      "payable": false,
      "stateMutability": "view",
      "type": "function"
    },
    {
      "constant": true,
      "inputs": [],
      "name": "totalSupply",
      "outputs": [
        {
          "name": "",
          "type": "uint256"
        }
      ],
      "payable": false,
      "stateMutability": "view",
      "type": "function"
    },
    {
      "constant": false,
      "inputs": [
        {
          "name": "holder",
          "type": "address"
        },
        {
          "name": "value",
          "type": "uint256"
        }
      ],
      "name": "multivestBuy",
      "outputs": [],
      "payable": false,
      "stateMutability": "nonpayable",
      "type": "function"
    },
    {
      "constant": false,
      "inputs": [
        {
          "name": "_from",
          "type": "address"
        },
        {
          "name": "_to",
          "type": "address"
        },
        {
          "name": "_value",
          "type": "uint256"
        }
      ],
      "name": "transferFrom",
      "outputs": [
        {
          "name": "",
          "type": "bool"
        }
      ],
      "payable": false,
      "stateMutability": "nonpayable",
      "type": "function"
    },
    {
      "constant": true,
      "inputs": [
        {
          "name": "",
          "type": "uint256"
        }
      ],
      "name": "phases",
      "outputs": [
        {
          "name": "price",
          "type": "uint256"
        },
        {
          "name": "since",
          "type": "uint256"
        },
        {
          "name": "till",
          "type": "uint256"
        },
        {
          "name": "allocatedTokens",
          "type": "uint256"
        },
        {
          "name": "goalMinSoldTokens",
          "type": "uint256"
        },
        {
          "name": "minContribution",
          "type": "uint256"
        },
        {
          "name": "maxContribution",
          "type": "uint256"
        },
        {
          "name": "soldTokens",
          "type": "uint256"
        },
        {
          "name": "isFinished",
          "type": "bool"
        }
      ],
      "payable": false,
      "stateMutability": "view",
      "type": "function"
    },
    {
      "constant": true,
      "inputs": [],
      "name": "decimals",
      "outputs": [
        {
          "name": "",
          "type": "uint8"
        }
      ],
      "payable": false,
      "stateMutability": "view",
      "type": "function"
    },
    {
      "constant": true,
      "inputs": [
        {
          "name": "",
          "type": "address"
        }
      ],
      "name": "sentEthers",
      "outputs": [
        {
          "name": "",
          "type": "uint256"
        }
      ],
      "payable": false,
      "stateMutability": "view",
      "type": "function"
    },
    {
      "constant": true,
      "inputs": [],
      "name": "isRefundAllowed",
      "outputs": [
        {
          "name": "",
          "type": "bool"
        }
      ],
      "payable": false,
      "stateMutability": "view",
      "type": "function"
    },
    {
      "constant": false,
      "inputs": [
        {
          "name": "_address",
          "type": "address"
        }
      ],
      "name": "unsetAllowedMultivest",
      "outputs": [],
      "payable": false,
      "stateMutability": "nonpayable",
      "type": "function"
    },
    {
      "constant": true,
      "inputs": [
        {
          "name": "",
          "type": "address"
        }
      ],
      "name": "allowedMultivests",
      "outputs": [
        {
          "name": "",
          "type": "bool"
        }
      ],
      "payable": false,
      "stateMutability": "view",
      "type": "function"
    },
    {
      "constant": true,
      "inputs": [],
      "name": "version",
      "outputs": [
        {
          "name": "",
          "type": "string"
        }
      ],
      "payable": false,
      "stateMutability": "view",
      "type": "function"
    },
    {
      "constant": false,
      "inputs": [
        {
          "name": "_address",
          "type": "address"
        }
      ],
      "name": "setAllowedMultivest",
      "outputs": [],
      "payable": false,
      "stateMutability": "nonpayable",
      "type": "function"
    },
    {
      "constant": false,
      "inputs": [
        {
          "name": "_spender",
          "type": "address"
        },
        {
          "name": "_subtractedValue",
          "type": "uint256"
        }
      ],
      "name": "decreaseApproval",
      "outputs": [
        {
          "name": "",
          "type": "bool"
        }
      ],
      "payable": false,
      "stateMutability": "nonpayable",
      "type": "function"
    },
    {
      "constant": true,
      "inputs": [
        {
          "name": "_owner",
          "type": "address"
        }
      ],
      "name": "balanceOf",
      "outputs": [
        {
          "name": "",
          "type": "uint256"
        }
      ],
      "payable": false,
      "stateMutability": "view",
      "type": "function"
    },
    {
      "constant": true,
      "inputs": [],
      "name": "owner",
      "outputs": [
        {
          "name": "",
          "type": "address"
        }
      ],
      "payable": false,
      "stateMutability": "view",
      "type": "function"
    },
    {
      "constant": true,
      "inputs": [],
      "name": "symbol",
      "outputs": [
        {
          "name": "",
          "type": "string"
        }
      ],
      "payable": false,
      "stateMutability": "view",
      "type": "function"
    },
    {
      "constant": false,
      "inputs": [
        {
          "name": "_to",
          "type": "address"
        },
        {
          "name": "_value",
          "type": "uint256"
        }
      ],
      "name": "transfer",
      "outputs": [
        {
          "name": "",
          "type": "bool"
        }
      ],
      "payable": false,
      "stateMutability": "nonpayable",
      "type": "function"
    },
    {
      "constant": true,
      "inputs": [],
      "name": "locked",
      "outputs": [
        {
          "name": "",
          "type": "bool"
        }
      ],
      "payable": false,
      "stateMutability": "view",
      "type": "function"
    },
    {
      "constant": true,
      "inputs": [],
      "name": "allocatedTokensForSale",
      "outputs": [
        {
          "name": "",
          "type": "uint256"
        }
      ],
      "payable": false,
      "stateMutability": "view",
      "type": "function"
    },
    {
      "constant": true,
      "inputs": [],
      "name": "phasesSet",
      "outputs": [
        {
          "name": "",
          "type": "bool"
        }
      ],
      "payable": false,
      "stateMutability": "view",
      "type": "function"
    },
    {
      "constant": false,
      "inputs": [
        {
          "name": "_spender",
          "type": "address"
        },
        {
          "name": "_addedValue",
          "type": "uint256"
        }
      ],
      "name": "increaseApproval",
      "outputs": [
        {
          "name": "",
          "type": "bool"
        }
      ],
      "payable": false,
      "stateMutability": "nonpayable",
      "type": "function"
    },
    {
      "constant": true,
      "inputs": [
        {
          "name": "_owner",
          "type": "address"
        },
        {
          "name": "_spender",
          "type": "address"
        }
      ],
      "name": "allowance",
      "outputs": [
        {
          "name": "",
          "type": "uint256"
        }
      ],
      "payable": false,
      "stateMutability": "view",
      "type": "function"
    },
    {
      "constant": false,
      "inputs": [
        {
          "name": "newOwner",
          "type": "address"
        }
      ],
      "name": "transferOwnership",
      "outputs": [],
      "payable": false,
      "stateMutability": "nonpayable",
      "type": "function"
    },
    {
      "inputs": [
        {
          "name": "_reserveAccount",
          "type": "address"
        },
        {
          "name": "_reserveAmount",
          "type": "uint256"
        },
        {
          "name": "_initialSupply",
          "type": "uint256"
        },
        {
          "name": "_tokenName",
          "type": "string"
        },
        {
          "name": "_tokenSymbol",
          "type": "string"
        },
        {
          "name": "_multivestMiddleware",
          "type": "address"
        },
        {
          "name": "_locked",
          "type": "bool"
        }
      ],
      "payable": false,
      "stateMutability": "nonpayable",
      "type": "constructor"
    },
    {
      "payable": true,
      "stateMutability": "payable",
      "type": "fallback"
    },
    {
      "anonymous": false,
      "inputs": [
        {
          "indexed": false,
          "name": "holder",
          "type": "address"
        },
        {
          "indexed": false,
          "name": "ethers",
          "type": "uint256"
        },
        {
          "indexed": false,
          "name": "tokens",
          "type": "uint256"
        }
      ],
      "name": "Refund",
      "type": "event"
    },
    {
      "anonymous": false,
      "inputs": [
        {
          "indexed": false,
          "name": "_holder",
          "type": "address"
        },
        {
          "indexed": false,
          "name": "value",
          "type": "uint256"
        },
        {
          "indexed": false,
          "name": "tokens",
          "type": "uint256"
        }
      ],
      "name": "Contribution",
      "type": "event"
    },
    {
      "anonymous": false,
      "inputs": [
        {
          "indexed": true,
          "name": "previousOwner",
          "type": "address"
        },
        {
          "indexed": true,
          "name": "newOwner",
          "type": "address"
        }
      ],
      "name": "OwnershipTransferred",
      "type": "event"
    },
    {
      "anonymous": false,
      "inputs": [
        {
          "indexed": true,
          "name": "owner",
          "type": "address"
        },
        {
          "indexed": true,
          "name": "spender",
          "type": "address"
        },
        {
          "indexed": false,
          "name": "value",
          "type": "uint256"
        }
      ],
      "name": "Approval",
      "type": "event"
    },
    {
      "anonymous": false,
      "inputs": [
        {
          "indexed": true,
          "name": "from",
          "type": "address"
        },
        {
          "indexed": true,
          "name": "to",
          "type": "address"
        },
        {
          "indexed": false,
          "name": "value",
          "type": "uint256"
        }
      ],
      "name": "Transfer",
      "type": "event"
    },
    {
      "constant": false,
      "inputs": [
        {
          "name": "_preIcoTokenPrice",
          "type": "uint256"
        },
        {
          "name": "_preIcoSince",
          "type": "uint256"
        },
        {
          "name": "_preIcoTill",
          "type": "uint256"
        },
        {
          "name": "_allocatedTokensForPreICO",
          "type": "uint256"
        },
        {
          "name": "_minPreIcoContribution",
          "type": "uint256"
        },
        {
          "name": "_maxPreIcoContribution",
          "type": "uint256"
        },
        {
          "name": "_icoTokenPrice",
          "type": "uint256"
        },
        {
          "name": "_icoSince",
          "type": "uint256"
        },
        {
          "name": "_icoTill",
          "type": "uint256"
        },
        {
          "name": "_goalIcoMinSoldTokens",
          "type": "uint256"
        }
      ],
      "name": "setSalePhases",
      "outputs": [],
      "payable": false,
      "stateMutability": "nonpayable",
      "type": "function"
    },
    {
      "constant": true,
      "inputs": [
        {
          "name": "_time",
          "type": "uint256"
        }
      ],
      "name": "getCurrentPhase",
      "outputs": [
        {
          "name": "",
          "type": "uint8"
        }
      ],
      "payable": false,
      "stateMutability": "view",
      "type": "function"
    },
    {
      "constant": true,
      "inputs": [
        {
          "name": "time",
          "type": "uint256"
        },
        {
          "name": "amount",
          "type": "uint256"
        }
      ],
      "name": "getBonusAmount",
      "outputs": [
        {
          "name": "",
          "type": "uint256"
        }
      ],
      "payable": false,
      "stateMutability": "view",
      "type": "function"
    },
    {
      "constant": false,
      "inputs": [
        {
          "name": "_phaseId",
          "type": "uint8"
        },
        {
          "name": "_address",
          "type": "address"
        }
      ],
      "name": "addToWhitelist",
      "outputs": [],
      "payable": false,
      "stateMutability": "nonpayable",
      "type": "function"
    },
    {
      "constant": false,
      "inputs": [
        {
          "name": "_phaseId",
          "type": "uint8"
        },
        {
          "name": "_address",
          "type": "address"
        }
      ],
      "name": "removeFromWhitelist",
      "outputs": [],
      "payable": false,
      "stateMutability": "nonpayable",
      "type": "function"
    },
    {
      "constant": false,
      "inputs": [
        {
          "name": "_phaseId",
          "type": "uint8"
        },
        {
          "name": "_value",
          "type": "uint256"
        }
      ],
      "name": "setTokenPrice",
      "outputs": [],
      "payable": false,
      "stateMutability": "nonpayable",
      "type": "function"
    },
    {
      "constant": false,
      "inputs": [
        {
          "name": "_phaseId",
          "type": "uint8"
        },
        {
          "name": "_since",
          "type": "uint256"
        },
        {
          "name": "_till",
          "type": "uint256"
        }
      ],
      "name": "setPeriod",
      "outputs": [],
      "payable": false,
      "stateMutability": "nonpayable",
      "type": "function"
    },
    {
      "constant": false,
      "inputs": [
        {
          "name": "_locked",
          "type": "bool"
        }
      ],
      "name": "setLocked",
      "outputs": [],
      "payable": false,
      "stateMutability": "nonpayable",
      "type": "function"
    },
    {
      "constant": false,
      "inputs": [
        {
          "name": "_phaseId",
          "type": "uint8"
        }
      ],
      "name": "finished",
      "outputs": [
        {
          "name": "",
          "type": "bool"
        }
      ],
      "payable": false,
      "stateMutability": "nonpayable",
      "type": "function"
    },
    {
      "constant": false,
      "inputs": [],
      "name": "refund",
      "outputs": [
        {
          "name": "",
          "type": "bool"
        }
      ],
      "payable": false,
      "stateMutability": "nonpayable",
      "type": "function"
    },
    {
      "constant": false,
      "inputs": [
        {
          "name": "holder",
          "type": "address"
        }
      ],
      "name": "refundFor",
      "outputs": [
        {
          "name": "",
          "type": "bool"
        }
      ],
      "payable": false,
      "stateMutability": "nonpayable",
      "type": "function"
    },
    {
      "constant": false,
      "inputs": [],
      "name": "transferEthers",
      "outputs": [],
      "payable": false,
      "stateMutability": "nonpayable",
      "type": "function"
    },
    {
      "constant": false,
      "inputs": [
        {
          "name": "_value",
          "type": "bool"
        }
      ],
      "name": "setWhitelistStatus",
      "outputs": [],
      "payable": false,
      "stateMutability": "nonpayable",
      "type": "function"
    },
    {
      "constant": false,
      "inputs": [
        {
          "name": "_phaseId",
          "type": "uint8"
        },
        {
          "name": "_min",
          "type": "uint256"
        },
        {
          "name": "_max",
          "type": "uint256"
        }
      ],
      "name": "setMinMaxContribution",
      "outputs": [],
      "payable": false,
      "stateMutability": "nonpayable",
      "type": "function"
    },
    {
      "constant": true,
      "inputs": [
        {
          "name": "_address",
          "type": "address"
        },
        {
          "name": "_time",
          "type": "uint256"
        },
        {
          "name": "_value",
          "type": "uint256"
        }
      ],
      "name": "calculateTokensAmount",
      "outputs": [
        {
          "name": "",
          "type": "uint256"
        }
      ],
      "payable": false,
      "stateMutability": "view",
      "type": "function"
    },
    {
      "constant": true,
      "inputs": [
        {
          "name": "_phaseId",
          "type": "uint8"
        }
      ],
      "name": "isActive",
      "outputs": [
        {
          "name": "",
          "type": "bool"
        }
      ],
      "payable": false,
      "stateMutability": "view",
      "type": "function"
    },
    {
      "constant": true,
      "inputs": [
        {
          "name": "_phaseId",
          "type": "uint8"
        }
      ],
      "name": "withinPeriod",
      "outputs": [
        {
          "name": "",
          "type": "bool"
        }
      ],
      "payable": false,
      "stateMutability": "view",
      "type": "function"
    },
    {
      "constant": false,
      "inputs": [],
      "name": "buyTokens",
      "outputs": [],
      "payable": true,
      "stateMutability": "payable",
      "type": "function"
    }
  ],
  "bytecode": "0x60606040526040805190810160405280600381526020017f302e310000000000000000000000000000000000000000000000000000000000815250600490805190602001906200005192919062000470565b5034156200005e57600080fd5b60405162003e6738038062003e678339810160405280805190602001909190805190602001909190805190602001909190805182019190602001805182019190602001805190602001909190805190602001909190505081858560128660008460018190555080156200011457846000803373ffffffffffffffffffffffffffffffffffffffff1673ffffffffffffffffffffffffffffffffffffffff1681526020019081526020016000208190555062000158565b846000803073ffffffffffffffffffffffffffffffffffffffff1673ffffffffffffffffffffffffffffffffffffffff168152602001908152602001600020819055505b83600390805190602001906200017092919062000470565b5081600590805190602001906200018992919062000470565b5082600660006101000a81548160ff021916908360ff16021790555043600781905550505050505033600860006101000a81548173ffffffffffffffffffffffffffffffffffffffff021916908373ffffffffffffffffffffffffffffffffffffffff1602179055506001600960008373ffffffffffffffffffffffffffffffffffffffff1673ffffffffffffffffffffffffffffffffffffffff16815260200190815260200160002060006101000a81548160ff021916908315150217905550508486111515156200025b57600080fd5b80600c60036101000a81548160ff021916908315150217905550856000808973ffffffffffffffffffffffffffffffffffffffff1673ffffffffffffffffffffffffffffffffffffffff1681526020019081526020016000208190555062000317620002db886200040e64010000000002620023a5176401000000009004565b620002fa306200040e64010000000002620023a5176401000000009004565b6200045664010000000002620035e2179091906401000000009004565b6000803073ffffffffffffffffffffffffffffffffffffffff1673ffffffffffffffffffffffffffffffffffffffff1681526020019081526020016000208190555062000378306200040e64010000000002620023a5176401000000009004565b600a819055508673ffffffffffffffffffffffffffffffffffffffff163073ffffffffffffffffffffffffffffffffffffffff167fddf252ad1be2c89b69c2b068fc378daa952ba7f163c4a11628f55a4df523b3ef620003ec8a6200040e64010000000002620023a5176401000000009004565b6040518082815260200191505060405180910390a3505050505050506200051f565b60008060008373ffffffffffffffffffffffffffffffffffffffff1673ffffffffffffffffffffffffffffffffffffffff168152602001908152602001600020549050919050565b60008282111515156200046557fe5b818303905092915050565b828054600181600116156101000203166002900490600052602060002090601f016020900481019282601f10620004b357805160ff1916838001178555620004e4565b82800160010185558215620004e4579182015b82811115620004e3578251825591602001919060010190620004c6565b5b509050620004f39190620004f7565b5090565b6200051c91905b8082111562000518576000816000905550600101620004fe565b5090565b90565b613938806200052f6000396000f300606060405260043610610225576000357c0100000000000000000000000000000000000000000000000000000000900463ffffffff1680630200b10d1461022f57806302ce58131461025857806303b964711461028557806306fdde03146102e4578063095ea7b31461037257806317634514146103cc57806318160ddd146103f5578063211e28b61461041e57806321a5dcfe1461044357806323b872dd146104855780632e34c124146104fe5780632e37eef614610543578063313ce567146105b657806334f534ff146105e5578063376ff7f0146106325780633a7ab4f41461065f5780633bb5a02c146106975780634a999118146106d05780635377f047146106f557806354fd4d501461074657806356f6e184146107d4578063572e85ec1461081957806357aba4ab14610856578063590e1ae3146108a75780635a263ef1146108d45780635cd72b1514610912578063661884631461094b5780636d46d660146109a557806370a08231146109e35780638196483614610a305780638da5cb5b14610a6857806395d89b4114610abd5780639983c6a114610b4b578063a9059cbb14610b89578063b0f209fc14610be3578063c8e6dcb114610c57578063ce8ba77e14610c97578063cf30901214610cc6578063cf8271b314610cf3578063d0febe4c14610d1c578063d271011d14610d26578063d394509c14610d3b578063d73dd62314610d68578063dd62ed3e14610dc2578063f2fde38b14610e2e575b61022d610e67565b005b341561023a57600080fd5b610242610f21565b6040518082815260200191505060405180910390f35b341561026357600080fd5b61026b610f27565b604051808215151515815260200191505060405180910390f35b341561029057600080fd5b6102ce600480803573ffffffffffffffffffffffffffffffffffffffff16906020019091908035906020019091908035906020019091905050610f3a565b6040518082815260200191505060405180910390f35b34156102ef57600080fd5b6102f761113e565b6040518080602001828103825283818151815260200191508051906020019080838360005b8381101561033757808201518184015260208101905061031c565b50505050905090810190601f1680156103645780820380516001836020036101000a031916815260200191505b509250505060405180910390f35b341561037d57600080fd5b6103b2600480803573ffffffffffffffffffffffffffffffffffffffff169060200190919080359060200190919050506111dc565b604051808215151515815260200191505060405180910390f35b34156103d757600080fd5b6103df6112ce565b6040518082815260200191505060405180910390f35b341561040057600080fd5b6104086112d4565b6040518082815260200191505060405180910390f35b341561042957600080fd5b610441600480803515159060200190919050506112de565b005b341561044e57600080fd5b610483600480803573ffffffffffffffffffffffffffffffffffffffff16906020019091908035906020019091905050611357565b005b341561049057600080fd5b6104e4600480803573ffffffffffffffffffffffffffffffffffffffff1690602001909190803573ffffffffffffffffffffffffffffffffffffffff169060200190919080359060200190919050506113f3565b604051808215151515815260200191505060405180910390f35b341561050957600080fd5b610541600480803560ff1690602001909190803573ffffffffffffffffffffffffffffffffffffffff169060200190919050506117ad565b005b341561054e57600080fd5b61056460048080359060200190919050506118a2565b604051808a815260200189815260200188815260200187815260200186815260200185815260200184815260200183815260200182151515158152602001995050505050505050505060405180910390f35b34156105c157600080fd5b6105c961190c565b604051808260ff1660ff16815260200191505060405180910390f35b34156105f057600080fd5b61061c600480803573ffffffffffffffffffffffffffffffffffffffff1690602001909190505061191f565b6040518082815260200191505060405180910390f35b341561063d57600080fd5b610645611937565b604051808215151515815260200191505060405180910390f35b341561066a57600080fd5b610695600480803560ff1690602001909190803590602001909190803590602001909190505061194a565b005b34156106a257600080fd5b6106ce600480803573ffffffffffffffffffffffffffffffffffffffff16906020019091905050611a0a565b005b34156106db57600080fd5b6106f360048080351515906020019091905050611ac1565b005b341561070057600080fd5b61072c600480803573ffffffffffffffffffffffffffffffffffffffff16906020019091905050611b3a565b604051808215151515815260200191505060405180910390f35b341561075157600080fd5b610759611b5a565b6040518080602001828103825283818151815260200191508051906020019080838360005b8381101561079957808201518184015260208101905061077e565b50505050905090810190601f1680156107c65780820380516001836020036101000a031916815260200191505b509250505060405180910390f35b34156107df57600080fd5b610817600480803560ff1690602001909190803573ffffffffffffffffffffffffffffffffffffffff16906020019091905050611bf8565b005b341561082457600080fd5b61083a6004808035906020019091905050611ced565b604051808260ff1660ff16815260200191505060405180910390f35b341561086157600080fd5b61088d600480803573ffffffffffffffffffffffffffffffffffffffff16906020019091905050611da8565b604051808215151515815260200191505060405180910390f35b34156108b257600080fd5b6108ba611dba565b604051808215151515815260200191505060405180910390f35b34156108df57600080fd5b6108f8600480803560ff16906020019091905050611dca565b604051808215151515815260200191505060405180910390f35b341561091d57600080fd5b610949600480803573ffffffffffffffffffffffffffffffffffffffff16906020019091905050611fe7565b005b341561095657600080fd5b61098b600480803573ffffffffffffffffffffffffffffffffffffffff1690602001909190803590602001909190505061209e565b604051808215151515815260200191505060405180910390f35b34156109b057600080fd5b6109c9600480803560ff1690602001909190505061232f565b604051808215151515815260200191505060405180910390f35b34156109ee57600080fd5b610a1a600480803573ffffffffffffffffffffffffffffffffffffffff169060200190919050506123a5565b6040518082815260200191505060405180910390f35b3415610a3b57600080fd5b610a66600480803560ff169060200190919080359060200190919080359060200190919050506123ed565b005b3415610a7357600080fd5b610a7b6124b5565b604051808273ffffffffffffffffffffffffffffffffffffffff1673ffffffffffffffffffffffffffffffffffffffff16815260200191505060405180910390f35b3415610ac857600080fd5b610ad06124db565b6040518080602001828103825283818151815260200191508051906020019080838360005b83811015610b10578082015181840152602081019050610af5565b50505050905090810190601f168015610b3d5780820380516001836020036101000a031916815260200191505b509250505060405180910390f35b3415610b5657600080fd5b610b6f600480803560ff16906020019091905050612579565b604051808215151515815260200191505060405180910390f35b3415610b9457600080fd5b610bc9600480803573ffffffffffffffffffffffffffffffffffffffff169060200190919080359060200190919050506125d4565b604051808215151515815260200191505060405180910390f35b3415610bee57600080fd5b610c5560048080359060200190919080359060200190919080359060200190919080359060200190919080359060200190919080359060200190919080359060200190919080359060200190919080359060200190919080359060200190919050506127f3565b005b3415610c6257600080fd5b610c816004808035906020019091908035906020019091905050612aba565b6040518082815260200191505060405180910390f35b3415610ca257600080fd5b610cc4600480803560ff16906020019091908035906020019091905050612b3e565b005b3415610cd157600080fd5b610cd9612be2565b604051808215151515815260200191505060405180910390f35b3415610cfe57600080fd5b610d06612bf5565b6040518082815260200191505060405180910390f35b610d24610e67565b005b3415610d3157600080fd5b610d39612bfb565b005b3415610d4657600080fd5b610d4e612de0565b604051808215151515815260200191505060405180910390f35b3415610d7357600080fd5b610da8600480803573ffffffffffffffffffffffffffffffffffffffff16906020019091908035906020019091905050612df3565b604051808215151515815260200191505060405180910390f35b3415610dcd57600080fd5b610e18600480803573ffffffffffffffffffffffffffffffffffffffff1690602001909190803573ffffffffffffffffffffffffffffffffffffffff16906020019091905050612fef565b6040518082815260200191505060405180910390f35b3415610e3957600080fd5b610e65600480803573ffffffffffffffffffffffffffffffffffffffff16906020019091905050613076565b005b6000610e743342346131ce565b905060011515811515141515610e8957600080fd5b610edb34600d60003373ffffffffffffffffffffffffffffffffffffffff1673ffffffffffffffffffffffffffffffffffffffff168152602001908152602001600020546134aa90919063ffffffff16565b600d60003373ffffffffffffffffffffffffffffffffffffffff1673ffffffffffffffffffffffffffffffffffffffff1681526020019081526020016000208190555050565b600b5481565b600c60019054906101000a900460ff1681565b600080600080610f4986611ced565b9250600e8360ff16815481101515610f5d57fe5b90600052602060002090600a02019150600c60019054906101000a900460ff16151560011515148015610fe25750600015158260090160008973ffffffffffffffffffffffffffffffffffffffff1673ffffffffffffffffffffffffffffffffffffffff16815260200190815260200160002060009054906101000a900460ff161515145b15610ff05760009350611134565b8160080160009054906101000a900460ff16156110105760009350611134565b61101a83866134c6565b151560001515141561102f5760009350611134565b600082600601541415801561108457506000600d60008973ffffffffffffffffffffffffffffffffffffffff1673ffffffffffffffffffffffffffffffffffffffff1681526020019081526020016000205414155b156110f3576110db85600d60008a73ffffffffffffffffffffffffffffffffffffffff1673ffffffffffffffffffffffffffffffffffffffff168152602001908152602001600020546134aa90919063ffffffff16565b905081600601548111156110f25760009350611134565b5b6111318260000154611123600660009054906101000a900460ff1660ff16600a0a8861359490919063ffffffff16565b6135cc90919063ffffffff16565b93505b5050509392505050565b60038054600181600116156101000203166002900480601f0160208091040260200160405190810160405280929190818152602001828054600181600116156101000203166002900480156111d45780601f106111a9576101008083540402835291602001916111d4565b820191906000526020600020905b8154815290600101906020018083116111b757829003601f168201915b505050505081565b600081600260003373ffffffffffffffffffffffffffffffffffffffff1673ffffffffffffffffffffffffffffffffffffffff16815260200190815260200160002060008573ffffffffffffffffffffffffffffffffffffffff1673ffffffffffffffffffffffffffffffffffffffff168152602001908152602001600020819055508273ffffffffffffffffffffffffffffffffffffffff163373ffffffffffffffffffffffffffffffffffffffff167f8c5be1e5ebec7d5bd14f71427d1e84f3dd0314c0f7b2291e5b200ac8c7c3b925846040518082815260200191505060405180910390a36001905092915050565b60075481565b6000600154905090565b600860009054906101000a900473ffffffffffffffffffffffffffffffffffffffff1673ffffffffffffffffffffffffffffffffffffffff163373ffffffffffffffffffffffffffffffffffffffff1614151561133a57600080fd5b80600c60036101000a81548160ff02191690831515021790555050565b600060026004810160003690501015151561136e57fe5b600960003373ffffffffffffffffffffffffffffffffffffffff1673ffffffffffffffffffffffffffffffffffffffff16815260200190815260200160002060009054906101000a900460ff161515600115151415156113cd57600080fd5b6113d88442856131ce565b9150600115158215151415156113ed57600080fd5b50505050565b60008073ffffffffffffffffffffffffffffffffffffffff168373ffffffffffffffffffffffffffffffffffffffff161415151561143057600080fd5b6000808573ffffffffffffffffffffffffffffffffffffffff1673ffffffffffffffffffffffffffffffffffffffff16815260200190815260200160002054821115151561147d57600080fd5b600260008573ffffffffffffffffffffffffffffffffffffffff1673ffffffffffffffffffffffffffffffffffffffff16815260200190815260200160002060003373ffffffffffffffffffffffffffffffffffffffff1673ffffffffffffffffffffffffffffffffffffffff16815260200190815260200160002054821115151561150857600080fd5b611559826000808773ffffffffffffffffffffffffffffffffffffffff1673ffffffffffffffffffffffffffffffffffffffff168152602001908152602001600020546135e290919063ffffffff16565b6000808673ffffffffffffffffffffffffffffffffffffffff1673ffffffffffffffffffffffffffffffffffffffff168152602001908152602001600020819055506115ec826000808673ffffffffffffffffffffffffffffffffffffffff1673ffffffffffffffffffffffffffffffffffffffff168152602001908152602001600020546134aa90919063ffffffff16565b6000808573ffffffffffffffffffffffffffffffffffffffff1673ffffffffffffffffffffffffffffffffffffffff168152602001908152602001600020819055506116bd82600260008773ffffffffffffffffffffffffffffffffffffffff1673ffffffffffffffffffffffffffffffffffffffff16815260200190815260200160002060003373ffffffffffffffffffffffffffffffffffffffff1673ffffffffffffffffffffffffffffffffffffffff168152602001908152602001600020546135e290919063ffffffff16565b600260008673ffffffffffffffffffffffffffffffffffffffff1673ffffffffffffffffffffffffffffffffffffffff16815260200190815260200160002060003373ffffffffffffffffffffffffffffffffffffffff1673ffffffffffffffffffffffffffffffffffffffff168152602001908152602001600020819055508273ffffffffffffffffffffffffffffffffffffffff168473ffffffffffffffffffffffffffffffffffffffff167fddf252ad1be2c89b69c2b068fc378daa952ba7f163c4a11628f55a4df523b3ef846040518082815260200191505060405180910390a3600190509392505050565b6000600860009054906101000a900473ffffffffffffffffffffffffffffffffffffffff1673ffffffffffffffffffffffffffffffffffffffff163373ffffffffffffffffffffffffffffffffffffffff1614151561180b57600080fd5b8260ff16600e8054905011151561182157600080fd5b600e8360ff1681548110151561183357fe5b90600052602060002090600a0201905060008160090160008473ffffffffffffffffffffffffffffffffffffffff1673ffffffffffffffffffffffffffffffffffffffff16815260200190815260200160002060006101000a81548160ff021916908315150217905550505050565b600e818154811015156118b157fe5b90600052602060002090600a02016000915090508060000154908060010154908060020154908060030154908060040154908060050154908060060154908060070154908060080160009054906101000a900460ff16905089565b600660009054906101000a900460ff1681565b600d6020528060005260406000206000915090505481565b600c60009054906101000a900460ff1681565b6000600860009054906101000a900473ffffffffffffffffffffffffffffffffffffffff1673ffffffffffffffffffffffffffffffffffffffff163373ffffffffffffffffffffffffffffffffffffffff161415156119a857600080fd5b8360ff16600e805490501115156119be57600080fd5b8060010154421015156119d057600080fd5b600e8460ff168154811015156119e257fe5b90600052602060002090600a0201905082816001018190555081816002018190555050505050565b600860009054906101000a900473ffffffffffffffffffffffffffffffffffffffff1673ffffffffffffffffffffffffffffffffffffffff163373ffffffffffffffffffffffffffffffffffffffff16141515611a6657600080fd5b6000600960008373ffffffffffffffffffffffffffffffffffffffff1673ffffffffffffffffffffffffffffffffffffffff16815260200190815260200160002060006101000a81548160ff02191690831515021790555050565b600860009054906101000a900473ffffffffffffffffffffffffffffffffffffffff1673ffffffffffffffffffffffffffffffffffffffff163373ffffffffffffffffffffffffffffffffffffffff16141515611b1d57600080fd5b80600c60016101000a81548160ff02191690831515021790555050565b60096020528060005260406000206000915054906101000a900460ff1681565b60048054600181600116156101000203166002900480601f016020809104026020016040519081016040528092919081815260200182805460018160011615610100020316600290048015611bf05780601f10611bc557610100808354040283529160200191611bf0565b820191906000526020600020905b815481529060010190602001808311611bd357829003601f168201915b505050505081565b6000600860009054906101000a900473ffffffffffffffffffffffffffffffffffffffff1673ffffffffffffffffffffffffffffffffffffffff163373ffffffffffffffffffffffffffffffffffffffff16141515611c5657600080fd5b8260ff16600e80549050111515611c6c57600080fd5b600e8360ff16815481101515611c7e57fe5b90600052602060002090600a0201905060018160090160008473ffffffffffffffffffffffffffffffffffffffff1673ffffffffffffffffffffffffffffffffffffffff16815260200190815260200160002060006101000a81548160ff021916908315150217905550505050565b600080600060011515600c60029054906101000a900460ff161515141515611d1457600080fd5b6000841415611d2a57600e805490509250611da1565b600091505b600e805490508260ff161015611d9857600e8260ff16815481101515611d5157fe5b90600052602060002090600a020190508381600101541115611d7257611d8b565b8381600201541015611d8357611d8b565b819250611da1565b8180600101925050611d2f565b600e8054905092505b5050919050565b6000611db3826135fb565b9050919050565b6000611dc5336135fb565b905090565b60008060008360ff16600e80549050111515611de557600080fd5b600e8460ff16815481101515611df757fe5b90600052602060002090600a02019150600115158260080160009054906101000a900460ff1615151415611e2e5760019250611fe0565b611e49826007015483600301546135e290919063ffffffff16565b90508160020154421180611e64575081600701548260030154145b80611e7757506000611e75306123a5565b145b15611fcb5760018460ff161415611f805760008060003073ffffffffffffffffffffffffffffffffffffffff1673ffffffffffffffffffffffffffffffffffffffff16815260200190815260200160002081905550600073ffffffffffffffffffffffffffffffffffffffff163073ffffffffffffffffffffffffffffffffffffffff167fddf252ad1be2c89b69c2b068fc378daa952ba7f163c4a11628f55a4df523b3ef836040518082815260200191505060405180910390a381600401548260070154101515611f63576000600c60006101000a81548160ff021916908315150217905550611f7f565b6001600c60006101000a81548160ff0219169083151502179055505b5b60008460ff161415611fad576000811115611fac57611f9e81613822565b816007015482600301819055505b5b60018260080160006101000a81548160ff0219169083151502179055505b8160080160009054906101000a900460ff1692505b5050919050565b600860009054906101000a900473ffffffffffffffffffffffffffffffffffffffff1673ffffffffffffffffffffffffffffffffffffffff163373ffffffffffffffffffffffffffffffffffffffff1614151561204357600080fd5b6001600960008373ffffffffffffffffffffffffffffffffffffffff1673ffffffffffffffffffffffffffffffffffffffff16815260200190815260200160002060006101000a81548160ff02191690831515021790555050565b600080600260003373ffffffffffffffffffffffffffffffffffffffff1673ffffffffffffffffffffffffffffffffffffffff16815260200190815260200160002060008573ffffffffffffffffffffffffffffffffffffffff1673ffffffffffffffffffffffffffffffffffffffff168152602001908152602001600020549050808311156121af576000600260003373ffffffffffffffffffffffffffffffffffffffff1673ffffffffffffffffffffffffffffffffffffffff16815260200190815260200160002060008673ffffffffffffffffffffffffffffffffffffffff1673ffffffffffffffffffffffffffffffffffffffff16815260200190815260200160002081905550612243565b6121c283826135e290919063ffffffff16565b600260003373ffffffffffffffffffffffffffffffffffffffff1673ffffffffffffffffffffffffffffffffffffffff16815260200190815260200160002060008673ffffffffffffffffffffffffffffffffffffffff1673ffffffffffffffffffffffffffffffffffffffff168152602001908152602001600020819055505b8373ffffffffffffffffffffffffffffffffffffffff163373ffffffffffffffffffffffffffffffffffffffff167f8c5be1e5ebec7d5bd14f71427d1e84f3dd0314c0f7b2291e5b200ac8c7c3b925600260003373ffffffffffffffffffffffffffffffffffffffff1673ffffffffffffffffffffffffffffffffffffffff16815260200190815260200160002060008873ffffffffffffffffffffffffffffffffffffffff1673ffffffffffffffffffffffffffffffffffffffff168152602001908152602001600020546040518082815260200191505060405180910390a3600191505092915050565b6000808260ff16600e8054905011151561234857600080fd5b600e8360ff1681548110151561235a57fe5b90600052602060002090600a0201905060008160070154118015612385575080600301548160070154145b15612393576000915061239f565b61239c83612579565b91505b50919050565b60008060008373ffffffffffffffffffffffffffffffffffffffff1673ffffffffffffffffffffffffffffffffffffffff168152602001908152602001600020549050919050565b6000600860009054906101000a900473ffffffffffffffffffffffffffffffffffffffff1673ffffffffffffffffffffffffffffffffffffffff163373ffffffffffffffffffffffffffffffffffffffff1614151561244b57600080fd5b8360ff16600e8054905011151561246157600080fd5b600e8460ff1681548110151561247357fe5b90600052602060002090600a0201905081831115806124925750600082145b151561249d57600080fd5b82816005018190555081816006018190555050505050565b600860009054906101000a900473ffffffffffffffffffffffffffffffffffffffff1681565b60058054600181600116156101000203166002900480601f0160208091040260200160405190810160405280929190818152602001828054600181600116156101000203166002900480156125715780601f1061254657610100808354040283529160200191612571565b820191906000526020600020905b81548152906001019060200180831161255457829003601f168201915b505050505081565b6000808260ff16600e8054905011151561259257600080fd5b600e8360ff168154811015156125a457fe5b90600052602060002090600a02019050806001015442101580156125cc575080600201544211155b915050919050565b60008073ffffffffffffffffffffffffffffffffffffffff168373ffffffffffffffffffffffffffffffffffffffff161415151561261157600080fd5b6000803373ffffffffffffffffffffffffffffffffffffffff1673ffffffffffffffffffffffffffffffffffffffff16815260200190815260200160002054821115151561265e57600080fd5b6126af826000803373ffffffffffffffffffffffffffffffffffffffff1673ffffffffffffffffffffffffffffffffffffffff168152602001908152602001600020546135e290919063ffffffff16565b6000803373ffffffffffffffffffffffffffffffffffffffff1673ffffffffffffffffffffffffffffffffffffffff16815260200190815260200160002081905550612742826000808673ffffffffffffffffffffffffffffffffffffffff1673ffffffffffffffffffffffffffffffffffffffff168152602001908152602001600020546134aa90919063ffffffff16565b6000808573ffffffffffffffffffffffffffffffffffffffff1673ffffffffffffffffffffffffffffffffffffffff168152602001908152602001600020819055508273ffffffffffffffffffffffffffffffffffffffff163373ffffffffffffffffffffffffffffffffffffffff167fddf252ad1be2c89b69c2b068fc378daa952ba7f163c4a11628f55a4df523b3ef846040518082815260200191505060405180910390a36001905092915050565b600860009054906101000a900473ffffffffffffffffffffffffffffffffffffffff1673ffffffffffffffffffffffffffffffffffffffff163373ffffffffffffffffffffffffffffffffffffffff1614151561284f57600080fd5b60001515600c60029054906101000a900460ff16151514151561287157600080fd5b600a548710151561288157600080fd5b86600a5403811115151561289457600080fd5b87891080156128a257508183105b80156128ae5750828811155b15156128b957600080fd5b8486111515156128c857600080fd5b6001600c60026101000a81548160ff021916908315150217905550600e80548060010182816128f79190613867565b91600052602060002090600a02016000610120604051908101604052808e81526020018d81526020018c81526020018b8152602001600081526020018a815260200189815260200160008152602001600015158152509091909150600082015181600001556020820151816001015560408201518160020155606082015181600301556080820151816004015560a0820151816005015560c0820151816006015560e082015181600701556101008201518160080160006101000a81548160ff021916908315150217905550505050600e80548060010182816129da9190613867565b91600052602060002090600a02016000610120604051908101604052808881526020018781526020018681526020018b600a54038152602001858152602001600081526020016000815260200160008152602001600015158152509091909150600082015181600001556020820151816001015560408201518160020155606082015181600301556080820151816004015560a0820151816005015560c0820151816006015560e082015181600701556101008201518160080160006101000a81548160ff02191690831515021790555050505050505050505050505050565b6000806000612ac885611ced565b9150600e8260ff16815481101515612adc57fe5b90600052602060002090600a020190506a084595161401484a00000081600701541015612b3157612b2a6064612b1c60288761359490919063ffffffff16565b6135cc90919063ffffffff16565b9250612b36565b600092505b505092915050565b6000600860009054906101000a900473ffffffffffffffffffffffffffffffffffffffff1673ffffffffffffffffffffffffffffffffffffffff163373ffffffffffffffffffffffffffffffffffffffff16141515612b9c57600080fd5b8260ff16600e80549050111515612bb257600080fd5b600e8360ff16815481101515612bc457fe5b90600052602060002090600a02019050818160000181905550505050565b600c60039054906101000a900460ff1681565b600a5481565b6000600860009054906101000a900473ffffffffffffffffffffffffffffffffffffffff1673ffffffffffffffffffffffffffffffffffffffff163373ffffffffffffffffffffffffffffffffffffffff16141515612c5957600080fd5b612c63600161232f565b151560001515141515612c7557600080fd5b600e6001815481101515612c8557fe5b90600052602060002090600a02019050428160020154111515612d6357600115158160080160009054906101000a900460ff161515148015612cda575060001515600c60009054906101000a900460ff161515145b1515612ce557600080fd5b600860009054906101000a900473ffffffffffffffffffffffffffffffffffffffff1673ffffffffffffffffffffffffffffffffffffffff166108fc3073ffffffffffffffffffffffffffffffffffffffff16319081150290604051600060405180830381858888f193505050501515612d5e57600080fd5b612ddd565b600860009054906101000a900473ffffffffffffffffffffffffffffffffffffffff1673ffffffffffffffffffffffffffffffffffffffff166108fc3073ffffffffffffffffffffffffffffffffffffffff16319081150290604051600060405180830381858888f193505050501515612ddc57600080fd5b5b50565b600c60029054906101000a900460ff1681565b6000612e8482600260003373ffffffffffffffffffffffffffffffffffffffff1673ffffffffffffffffffffffffffffffffffffffff16815260200190815260200160002060008673ffffffffffffffffffffffffffffffffffffffff1673ffffffffffffffffffffffffffffffffffffffff168152602001908152602001600020546134aa90919063ffffffff16565b600260003373ffffffffffffffffffffffffffffffffffffffff1673ffffffffffffffffffffffffffffffffffffffff16815260200190815260200160002060008573ffffffffffffffffffffffffffffffffffffffff1673ffffffffffffffffffffffffffffffffffffffff168152602001908152602001600020819055508273ffffffffffffffffffffffffffffffffffffffff163373ffffffffffffffffffffffffffffffffffffffff167f8c5be1e5ebec7d5bd14f71427d1e84f3dd0314c0f7b2291e5b200ac8c7c3b925600260003373ffffffffffffffffffffffffffffffffffffffff1673ffffffffffffffffffffffffffffffffffffffff16815260200190815260200160002060008773ffffffffffffffffffffffffffffffffffffffff1673ffffffffffffffffffffffffffffffffffffffff168152602001908152602001600020546040518082815260200191505060405180910390a36001905092915050565b6000600260008473ffffffffffffffffffffffffffffffffffffffff1673ffffffffffffffffffffffffffffffffffffffff16815260200190815260200160002060008373ffffffffffffffffffffffffffffffffffffffff1673ffffffffffffffffffffffffffffffffffffffff16815260200190815260200160002054905092915050565b600860009054906101000a900473ffffffffffffffffffffffffffffffffffffffff1673ffffffffffffffffffffffffffffffffffffffff163373ffffffffffffffffffffffffffffffffffffffff161415156130d257600080fd5b600073ffffffffffffffffffffffffffffffffffffffff168173ffffffffffffffffffffffffffffffffffffffff161415151561310e57600080fd5b8073ffffffffffffffffffffffffffffffffffffffff16600860009054906101000a900473ffffffffffffffffffffffffffffffffffffffff1673ffffffffffffffffffffffffffffffffffffffff167f8be0079c531659141344cd1fd0a4f28419497f9722a3daafe3b4186f6b6457e060405160405180910390a380600860006101000a81548173ffffffffffffffffffffffffffffffffffffffff021916908373ffffffffffffffffffffffffffffffffffffffff16021790555050565b600080600080600060011515600c60039054906101000a900460ff16151514156131fb576000945061349f565b61320487611ced565b9350600e8460ff1681548110151561321857fe5b90600052602060002090600a02019250600086141561323a576000945061349f565b613245888888610f3a565b91506000821415613259576000945061349f565b6132756132668884612aba565b836134aa90919063ffffffff16565b90508083600701540183600301541015613292576000945061349f565b6132a98184600701546134aa90919063ffffffff16565b8360070181905550806132bb306123a5565b10156132ca576000945061349f565b6132d3886123a5565b816132dd8a6123a5565b0110156132ed576000945061349f565b613308816132fa306123a5565b6135e290919063ffffffff16565b6000803073ffffffffffffffffffffffffffffffffffffffff1673ffffffffffffffffffffffffffffffffffffffff16815260200190815260200160002081905550613365816133578a6123a5565b6134aa90919063ffffffff16565b6000808a73ffffffffffffffffffffffffffffffffffffffff1673ffffffffffffffffffffffffffffffffffffffff168152602001908152602001600020819055506133bc86600b546134aa90919063ffffffff16565b600b819055507f5f7675b09617d2c9fa4fd13058ee5877a9538f626b0308816736e83748a45040888783604051808473ffffffffffffffffffffffffffffffffffffffff1673ffffffffffffffffffffffffffffffffffffffff168152602001838152602001828152602001935050505060405180910390a18773ffffffffffffffffffffffffffffffffffffffff163073ffffffffffffffffffffffffffffffffffffffff167fddf252ad1be2c89b69c2b068fc378daa952ba7f163c4a11628f55a4df523b3ef836040518082815260200191505060405180910390a3600194505b505050509392505050565b600081830190508281101515156134bd57fe5b80905092915050565b6000808360ff16600e805490501115156134df57600080fd5b600e8460ff168154811015156134f157fe5b90600052602060002090600a0201905060008160050154148015613519575060008160060154145b15613527576001915061358d565b8281600501541115801561353f575080600601548311155b1561354d576001915061358d565b80600601548311801561356557506000816006015414155b15613573576000915061358d565b8060050154831015613588576000915061358d565b600091505b5092915050565b6000808314156135a757600090506135c6565b81830290508183828115156135b857fe5b041415156135c257fe5b8090505b92915050565b600081838115156135d957fe5b04905092915050565b60008282111515156135f057fe5b818303905092915050565b600080600080600e600181548110151561361157fe5b90600052602060002090600a02019250600115158360080160009054906101000a900460ff161515148015613659575060011515600c60009054906101000a900460ff161515145b151561366457600080fd5b600d60008673ffffffffffffffffffffffffffffffffffffffff1673ffffffffffffffffffffffffffffffffffffffff1681526020019081526020016000205491506136af856123a5565b90506000821480156136c15750600081145b156136cf576000935061381a565b60008060008773ffffffffffffffffffffffffffffffffffffffff1673ffffffffffffffffffffffffffffffffffffffff168152602001908152602001600020819055506000600d60008773ffffffffffffffffffffffffffffffffffffffff1673ffffffffffffffffffffffffffffffffffffffff1681526020019081526020016000208190555060008211156137a2578473ffffffffffffffffffffffffffffffffffffffff166108fc839081150290604051600060405180830381858888f1935050505015156137a157600080fd5b5b7f73f04af9dcc582a923ec15d3eea990fe34adabfff2879e28d44572e01a54abb6858383604051808473ffffffffffffffffffffffffffffffffffffffff1673ffffffffffffffffffffffffffffffffffffffff168152602001838152602001828152602001935050505060405180910390a1600193505b505050919050565b6000600e600181548110151561383457fe5b90600052602060002090600a0201905061385b8282600301546134aa90919063ffffffff16565b81600301819055505050565b81548183558181151161389457600a0281600a0283600052602060002091820191016138939190613899565b5b505050565b61390991905b808211156139055760008082016000905560018201600090556002820160009055600382016000905560048201600090556005820160009055600682016000905560078201600090556008820160006101000a81549060ff021916905550600a0161389f565b5090565b905600a165627a7a72305820d585a64d4740f51828f704341cdabfb91a50c85ee5a5ae13570f95121b94f0800029",
  "source": "pragma solidity 0.4.21;\n\n\nimport \"./Token.sol\";\nimport \"./Multivest.sol\";\nimport \"zeppelin-solidity/contracts/math/SafeMath.sol\";\n\n\ncontract Ryfts is Token, Multivest {\n    using SafeMath for uint256;\n\n    uint256 public allocatedTokensForSale;\n    uint256 public collectedEthers;\n    bool public isRefundAllowed;\n    bool public whitelistActive;\n    bool public phasesSet;\n\n    bool public locked;\n\n    mapping (address => uint256) public sentEthers;\n\n    Phase[] public phases;\n\n    struct Phase {\n        uint256 price;\n        uint256 since;\n        uint256 till;\n        uint256 allocatedTokens;\n        // min. goal of tokens sold including bonuses\n        uint256 goalMinSoldTokens;\n        uint256 minContribution;\n        uint256 maxContribution;\n        uint256 soldTokens;\n        bool isFinished;\n        mapping (address => bool) whitelist;\n    }\n\n    event Refund(address holder, uint256 ethers, uint256 tokens);\n\n    function Ryfts(\n        address _reserveAccount,\n        uint256 _reserveAmount,\n        uint256 _initialSupply,\n        string _tokenName,\n        string _tokenSymbol,\n        address _multivestMiddleware,\n        bool _locked\n    )\n        public\n        Token(_initialSupply, _tokenName, 18, _tokenSymbol, false)\n        Multivest(_multivestMiddleware)\n    {\n        require(_reserveAmount <= _initialSupply);\n\n        // lock sale\n        locked = _locked;\n\n        balances[_reserveAccount] = _reserveAmount;\n        balances[this] = balanceOf(this).sub(balanceOf(_reserveAccount));\n\n        allocatedTokensForSale = balanceOf(this);\n    \n        emit Transfer(this, _reserveAccount, balanceOf(_reserveAccount));\n    }\n\n    function() public payable {\n        buyTokens();\n    }\n\n    function setSalePhases(\n        uint256 _preIcoTokenPrice,\n        uint256 _preIcoSince,\n        uint256 _preIcoTill,\n        uint256 _allocatedTokensForPreICO,\n        uint256 _minPreIcoContribution,\n        uint256 _maxPreIcoContribution,\n\n        uint256 _icoTokenPrice,\n        uint256 _icoSince,\n        uint256 _icoTill,\n        uint256  _goalIcoMinSoldTokens\n    ) public onlyOwner {\n        require(phasesSet == false);\n        require(_allocatedTokensForPreICO < allocatedTokensForSale);\n        require(_goalIcoMinSoldTokens <= allocatedTokensForSale - _allocatedTokensForPreICO);\n        require((_preIcoSince < _preIcoTill) && (_icoSince < _icoTill) && (_preIcoTill <= _icoSince));\n        require(_minPreIcoContribution <= _maxPreIcoContribution);\n        phasesSet = true;\n        phases.push(\n            Phase(\n                _preIcoTokenPrice,\n                _preIcoSince,\n                _preIcoTill,\n                _allocatedTokensForPreICO,\n                0,\n                _minPreIcoContribution,\n                _maxPreIcoContribution,\n                0,\n                false\n            )\n        );\n        phases.push(\n            Phase(\n                _icoTokenPrice,\n                _icoSince,\n                _icoTill,\n                allocatedTokensForSale - _allocatedTokensForPreICO,\n                _goalIcoMinSoldTokens,\n                0,\n                0,\n                0,\n                false\n            )\n        );\n    }\n\n    function getCurrentPhase(uint256 _time) public constant returns (uint8) {\n        require(phasesSet == true);\n        if (_time == 0) {\n            return uint8(phases.length);\n        }\n        for (uint8 i = 0; i < phases.length; i++) {\n            Phase storage phase = phases[i];\n            if (phase.since > _time) {\n                continue;\n            }\n\n            if (phase.till < _time) {\n                continue;\n            }\n\n            return i;\n        }\n\n        return uint8(phases.length);\n    }\n\n    function getBonusAmount(uint256 time, uint256 amount) public constant returns (uint256) {\n        uint8 currentPhase = getCurrentPhase(time);\n        Phase storage phase = phases[currentPhase];\n\n        // First 10 mil. have bonus\n        if (phase.soldTokens < 10000000000000000000000000) {\n            return amount.mul(40).div(100);\n        }\n\n        return 0;\n    }\n\n    function addToWhitelist(uint8 _phaseId, address _address) public onlyOwner {\n\n        require(phases.length > _phaseId);\n\n        Phase storage phase = phases[_phaseId];\n\n        phase.whitelist[_address] = true;\n\n    }\n\n    function removeFromWhitelist(uint8 _phaseId, address _address) public onlyOwner {\n\n        require(phases.length > _phaseId);\n\n        Phase storage phase = phases[_phaseId];\n\n        phase.whitelist[_address] = false;\n    }\n\n    function setTokenPrice(uint8 _phaseId, uint256 _value) public onlyOwner {\n        require(phases.length > _phaseId);\n        Phase storage phase = phases[_phaseId];\n        phase.price = _value;\n    }\n\n    function setPeriod(uint8 _phaseId, uint256 _since, uint256 _till) public onlyOwner {\n        require(phases.length > _phaseId);\n        // restrict changing phase after it begins\n        require(now < phase.since);\n\n        Phase storage phase = phases[_phaseId];\n        phase.since = _since;\n        phase.till = _till;\n    }\n\n    function setLocked(bool _locked) public onlyOwner {\n        locked = _locked;\n    }\n\n    function finished(uint8 _phaseId) public returns (bool) {\n        require(phases.length > _phaseId);\n        Phase storage phase = phases[_phaseId];\n\n        if (phase.isFinished == true) {\n            return true;\n        }\n\n        uint256 unsoldTokens = phase.allocatedTokens.sub(phase.soldTokens);\n\n        if (block.timestamp > phase.till || phase.allocatedTokens == phase.soldTokens || balanceOf(this) == 0) {\n            if (_phaseId == 1) {\n                balances[this] = 0;\n                emit Transfer(this, address(0), unsoldTokens);\n\n                if (phase.soldTokens >= phase.goalMinSoldTokens) {\n                    isRefundAllowed = false;\n                } else {\n                    isRefundAllowed = true;\n                }\n            }\n            if (_phaseId == 0) {\n                if (unsoldTokens > 0) {\n                    transferUnusedTokensToICO(unsoldTokens);\n                    phase.allocatedTokens = phase.soldTokens;\n                }\n\n            }\n            phase.isFinished = true;\n\n        }\n\n        return phase.isFinished;\n    }\n\n    function refund() public returns (bool) {\n        return refundInternal(msg.sender);\n    }\n\n    function refundFor(address holder) public returns (bool) {\n        return refundInternal(holder);\n    }\n\n    function transferEthers() public onlyOwner {\n        require(false == isActive(1));\n        Phase storage phase = phases[1];\n        if (phase.till <= block.timestamp) {\n            require(phase.isFinished == true && isRefundAllowed == false);\n            owner.transfer(address(this).balance);\n        } else {\n            owner.transfer(address(this).balance);\n        }\n    }\n\n    function setWhitelistStatus(bool _value) public onlyOwner {\n        whitelistActive = _value;\n    }\n\n    function setMinMaxContribution(uint8 _phaseId, uint256 _min, uint256 _max) public onlyOwner {\n        require(phases.length > _phaseId);\n        Phase storage phase = phases[_phaseId];\n        require(_min <= _max || _max == 0);\n\n        phase.minContribution = _min;\n        phase.maxContribution = _max;\n    }\n\n    function calculateTokensAmount(address _address, uint256 _time, uint256 _value) public constant returns(uint256) {\n        uint8 currentPhase = getCurrentPhase(_time);\n        Phase storage phase = phases[currentPhase];\n\n        if (true == whitelistActive && phase.whitelist[_address] == false) {\n            return 0;\n        }\n\n        if (phase.isFinished) {\n            return 0;\n        }\n\n        if (false == checkValuePermission(currentPhase, _value)) {\n            return 0;\n        }\n\n        // Check if total investment in phase is lower than max. amount of contribution\n        if (phase.maxContribution != 0 && sentEthers[_address] != 0) {\n            uint allTimeInvestment = sentEthers[_address].add(_value);\n            if (allTimeInvestment > phase.maxContribution) {\n                return 0;\n            }\n        }\n\n        return _value.mul(uint256(10) ** decimals).div(phase.price);\n    }\n\n    // @return true if sale period is active\n    function isActive(uint8 _phaseId) public constant returns (bool) {\n        require(phases.length > _phaseId);\n        Phase storage phase = phases[_phaseId];\n        if (phase.soldTokens > uint256(0) && phase.soldTokens == phase.allocatedTokens) {\n            return false;\n        }\n        return withinPeriod(_phaseId);\n    }\n\n    // @return true if the transaction can buy tokens\n    function withinPeriod(uint8 _phaseId) public constant returns (bool) {\n        require(phases.length > _phaseId);\n        Phase storage phase = phases[_phaseId];\n        return block.timestamp >= phase.since && block.timestamp <= phase.till;\n    }\n\n    function buyTokens() public payable {\n        bool status = buy(msg.sender, block.timestamp, msg.value);\n        require(status == true);\n\n        sentEthers[msg.sender] = sentEthers[msg.sender].add(msg.value);\n    }\n\n    /* solhint-disable code-complexity */\n    function buy(address _address, uint256 _time, uint256 _value) internal returns (bool) {\n        if (locked == true) {\n            return false;\n        }\n        uint8 currentPhase = getCurrentPhase(_time);\n        Phase storage phase = phases[currentPhase];\n        if (_value == 0) {\n            return false;\n        }\n\n        uint256 amount = calculateTokensAmount(_address, _time, _value);\n\n        if (amount == 0) {\n            return false;\n        }\n\n        uint256 totalAmount = amount.add(getBonusAmount(_time, amount));\n\n        if (phase.allocatedTokens < phase.soldTokens + totalAmount) {\n            return false;\n        }\n\n        phase.soldTokens = phase.soldTokens.add(totalAmount);\n\n        if (balanceOf(this) < totalAmount) {\n            return false;\n        }\n\n        if (balanceOf(_address) + totalAmount < balanceOf(_address)) {\n            return false;\n        }\n\n        balances[this] = balanceOf(this).sub(totalAmount);\n        balances[_address] = balanceOf(_address).add(totalAmount);\n\n        collectedEthers = collectedEthers.add(_value);\n\n        emit Contribution(_address, _value, totalAmount);\n        emit Transfer(this, _address, totalAmount);\n        return true;\n    }\n\n    function refundInternal(address holder) internal returns (bool success) {\n        Phase storage phase = phases[1];\n        require(phase.isFinished == true && isRefundAllowed == true);\n        uint256 refundEthers = sentEthers[holder];\n        uint256 refundTokens = balanceOf(holder);\n\n        if (refundEthers == 0 && refundTokens == 0) {\n            return false;\n        }\n\n        balances[holder] = 0;\n        sentEthers[holder] = 0;\n\n        if (refundEthers > 0) {\n            holder.transfer(refundEthers);\n        }\n\n        emit Refund(holder, refundEthers, refundTokens);\n\n        return true;\n    }\n\n    function transferUnusedTokensToICO(uint256 _unsoldPreICO) internal {\n        Phase storage phase = phases[1];\n        phase.allocatedTokens = phase.allocatedTokens.add(_unsoldPreICO);\n    }\n\n    function checkValuePermission(uint8 _phaseId, uint256 _value) internal view returns (bool) {\n        require(phases.length > _phaseId);\n        Phase storage phase = phases[_phaseId];\n\n        if (phase.minContribution == 0 && phase.maxContribution == 0) {\n            return true;\n        }\n\n        if (phase.minContribution <= _value && _value <= phase.maxContribution) {\n            return true;\n        }\n\n        if (_value > phase.maxContribution && phase.maxContribution != 0) {\n            return false;\n        }\n\n        if (_value < phase.minContribution) {\n            return false;\n        }\n\n        return false;\n    }\n\n}\n",
  "sourcePath": "/private/var/www/ryfts/ico-contracts/contracts/Ryfts.sol",
  "compiler": {
    "name": "solc",
    "version": "0.4.21+commit.dfe3193c.Emscripten.clang"
  },
  "schemaVersion": "2.0.0",
  "updatedAt": "2018-11-06T19:54:28.517Z"
}