{
  "contractName": "Ryfts",
  "abi": [
    {
      "constant": true,
      "inputs": [],
      "name": "collectedEthers",
      "outputs": [
        {
          "name": "",
          "type": "uint256"
        }
      ],
      "payable": false,
      "stateMutability": "view",
      "type": "function"
    },
    {
      "constant": true,
      "inputs": [],
      "name": "whitelistActive",
      "outputs": [
        {
          "name": "",
          "type": "bool"
        }
      ],
      "payable": false,
      "stateMutability": "view",
      "type": "function"
    },
    {
      "constant": true,
      "inputs": [],
      "name": "name",
      "outputs": [
        {
          "name": "",
          "type": "string"
        }
      ],
      "payable": false,
      "stateMutability": "view",
      "type": "function"
    },
    {
      "constant": false,
      "inputs": [
        {
          "name": "_spender",
          "type": "address"
        },
        {
          "name": "_value",
          "type": "uint256"
        }
      ],
      "name": "approve",
      "outputs": [
        {
          "name": "success",
          "type": "bool"
        }
      ],
      "payable": false,
      "stateMutability": "nonpayable",
      "type": "function"
    },
    {
      "constant": true,
      "inputs": [],
      "name": "creationBlock",
      "outputs": [
        {
          "name": "",
          "type": "uint256"
        }
      ],
      "payable": false,
      "stateMutability": "view",
      "type": "function"
    },
    {
      "constant": true,
      "inputs": [],
      "name": "totalSupply",
      "outputs": [
        {
          "name": "",
          "type": "uint256"
        }
      ],
      "payable": false,
      "stateMutability": "view",
      "type": "function"
    },
    {
      "constant": false,
      "inputs": [
        {
          "name": "holder",
          "type": "address"
        },
        {
          "name": "value",
          "type": "uint256"
        }
      ],
      "name": "multivestBuy",
      "outputs": [],
      "payable": false,
      "stateMutability": "nonpayable",
      "type": "function"
    },
    {
      "constant": false,
      "inputs": [
        {
          "name": "_from",
          "type": "address"
        },
        {
          "name": "_to",
          "type": "address"
        },
        {
          "name": "_value",
          "type": "uint256"
        }
      ],
      "name": "transferFrom",
      "outputs": [
        {
          "name": "success",
          "type": "bool"
        }
      ],
      "payable": false,
      "stateMutability": "nonpayable",
      "type": "function"
    },
    {
      "constant": true,
      "inputs": [
        {
          "name": "",
          "type": "uint256"
        }
      ],
      "name": "phases",
      "outputs": [
        {
          "name": "price",
          "type": "uint256"
        },
        {
          "name": "since",
          "type": "uint256"
        },
        {
          "name": "till",
          "type": "uint256"
        },
        {
          "name": "allocatedTokens",
          "type": "uint256"
        },
        {
          "name": "goalMinSoldTokens",
          "type": "uint256"
        },
        {
          "name": "minContribution",
          "type": "uint256"
        },
        {
          "name": "maxContribution",
          "type": "uint256"
        },
        {
          "name": "soldTokens",
          "type": "uint256"
        },
        {
          "name": "isFinished",
          "type": "bool"
        }
      ],
      "payable": false,
      "stateMutability": "view",
      "type": "function"
    },
    {
      "constant": true,
      "inputs": [],
      "name": "decimals",
      "outputs": [
        {
          "name": "",
          "type": "uint8"
        }
      ],
      "payable": false,
      "stateMutability": "view",
      "type": "function"
    },
    {
      "constant": true,
      "inputs": [
        {
          "name": "",
          "type": "address"
        }
      ],
      "name": "sentEthers",
      "outputs": [
        {
          "name": "",
          "type": "uint256"
        }
      ],
      "payable": false,
      "stateMutability": "view",
      "type": "function"
    },
    {
      "constant": true,
      "inputs": [],
      "name": "isRefundAllowed",
      "outputs": [
        {
          "name": "",
          "type": "bool"
        }
      ],
      "payable": false,
      "stateMutability": "view",
      "type": "function"
    },
    {
      "constant": false,
      "inputs": [
        {
          "name": "_address",
          "type": "address"
        }
      ],
      "name": "unsetAllowedMultivest",
      "outputs": [],
      "payable": false,
      "stateMutability": "nonpayable",
      "type": "function"
    },
    {
      "constant": true,
      "inputs": [
        {
          "name": "",
          "type": "address"
        }
      ],
      "name": "allowedMultivests",
      "outputs": [
        {
          "name": "",
          "type": "bool"
        }
      ],
      "payable": false,
      "stateMutability": "view",
      "type": "function"
    },
    {
      "constant": true,
      "inputs": [],
      "name": "standard",
      "outputs": [
        {
          "name": "",
          "type": "string"
        }
      ],
      "payable": false,
      "stateMutability": "view",
      "type": "function"
    },
    {
      "constant": false,
      "inputs": [
        {
          "name": "_address",
          "type": "address"
        }
      ],
      "name": "setAllowedMultivest",
      "outputs": [],
      "payable": false,
      "stateMutability": "nonpayable",
      "type": "function"
    },
    {
      "constant": true,
      "inputs": [
        {
          "name": "",
          "type": "address"
        }
      ],
      "name": "balanceOf",
      "outputs": [
        {
          "name": "",
          "type": "uint256"
        }
      ],
      "payable": false,
      "stateMutability": "view",
      "type": "function"
    },
    {
      "constant": true,
      "inputs": [],
      "name": "owner",
      "outputs": [
        {
          "name": "",
          "type": "address"
        }
      ],
      "payable": false,
      "stateMutability": "view",
      "type": "function"
    },
    {
      "constant": true,
      "inputs": [],
      "name": "symbol",
      "outputs": [
        {
          "name": "",
          "type": "string"
        }
      ],
      "payable": false,
      "stateMutability": "view",
      "type": "function"
    },
    {
      "constant": false,
      "inputs": [
        {
          "name": "_to",
          "type": "address"
        },
        {
          "name": "_value",
          "type": "uint256"
        }
      ],
      "name": "transfer",
      "outputs": [],
      "payable": false,
      "stateMutability": "nonpayable",
      "type": "function"
    },
    {
      "constant": true,
      "inputs": [],
      "name": "locked",
      "outputs": [
        {
          "name": "",
          "type": "bool"
        }
      ],
      "payable": false,
      "stateMutability": "view",
      "type": "function"
    },
    {
      "constant": true,
      "inputs": [],
      "name": "allocatedTokensForSale",
      "outputs": [
        {
          "name": "",
          "type": "uint256"
        }
      ],
      "payable": false,
      "stateMutability": "view",
      "type": "function"
    },
    {
      "constant": true,
      "inputs": [],
      "name": "phasesSet",
      "outputs": [
        {
          "name": "",
          "type": "bool"
        }
      ],
      "payable": false,
      "stateMutability": "view",
      "type": "function"
    },
    {
      "constant": true,
      "inputs": [
        {
          "name": "",
          "type": "address"
        },
        {
          "name": "",
          "type": "address"
        }
      ],
      "name": "allowance",
      "outputs": [
        {
          "name": "",
          "type": "uint256"
        }
      ],
      "payable": false,
      "stateMutability": "view",
      "type": "function"
    },
    {
      "constant": false,
      "inputs": [
        {
          "name": "newOwner",
          "type": "address"
        }
      ],
      "name": "transferOwnership",
      "outputs": [],
      "payable": false,
      "stateMutability": "nonpayable",
      "type": "function"
    },
    {
      "inputs": [
        {
          "name": "_reserveAccount",
          "type": "address"
        },
        {
          "name": "_reserveAmount",
          "type": "uint256"
        },
        {
          "name": "_initialSupply",
          "type": "uint256"
        },
        {
          "name": "_tokenName",
          "type": "string"
        },
        {
          "name": "_tokenSymbol",
          "type": "string"
        },
        {
          "name": "_multivestMiddleware",
          "type": "address"
        },
        {
          "name": "_locked",
          "type": "bool"
        }
      ],
      "payable": false,
      "stateMutability": "nonpayable",
      "type": "constructor"
    },
    {
      "payable": true,
      "stateMutability": "payable",
      "type": "fallback"
    },
    {
      "anonymous": false,
      "inputs": [
        {
          "indexed": false,
          "name": "holder",
          "type": "address"
        },
        {
          "indexed": false,
          "name": "ethers",
          "type": "uint256"
        },
        {
          "indexed": false,
          "name": "tokens",
          "type": "uint256"
        }
      ],
      "name": "Refund",
      "type": "event"
    },
    {
      "anonymous": false,
      "inputs": [
        {
          "indexed": false,
          "name": "_holder",
          "type": "address"
        },
        {
          "indexed": false,
          "name": "value",
          "type": "uint256"
        },
        {
          "indexed": false,
          "name": "tokens",
          "type": "uint256"
        }
      ],
      "name": "Contribution",
      "type": "event"
    },
    {
      "anonymous": false,
      "inputs": [
        {
          "indexed": true,
          "name": "_from",
          "type": "address"
        },
        {
          "indexed": true,
          "name": "_to",
          "type": "address"
        },
        {
          "indexed": false,
          "name": "_value",
          "type": "uint256"
        }
      ],
      "name": "Transfer",
      "type": "event"
    },
    {
      "anonymous": false,
      "inputs": [
        {
          "indexed": true,
          "name": "_owner",
          "type": "address"
        },
        {
          "indexed": true,
          "name": "_spender",
          "type": "address"
        },
        {
          "indexed": false,
          "name": "_value",
          "type": "uint256"
        }
      ],
      "name": "Approval",
      "type": "event"
    },
    {
      "anonymous": false,
      "inputs": [
        {
          "indexed": true,
          "name": "previousOwner",
          "type": "address"
        },
        {
          "indexed": true,
          "name": "newOwner",
          "type": "address"
        }
      ],
      "name": "OwnershipTransferred",
      "type": "event"
    },
    {
      "constant": false,
      "inputs": [
        {
          "name": "_preIcoTokenPrice",
          "type": "uint256"
        },
        {
          "name": "_preIcoSince",
          "type": "uint256"
        },
        {
          "name": "_preIcoTill",
          "type": "uint256"
        },
        {
          "name": "_allocatedTokensForPreICO",
          "type": "uint256"
        },
        {
          "name": "_minPreIcoContribution",
          "type": "uint256"
        },
        {
          "name": "_maxPreIcoContribution",
          "type": "uint256"
        },
        {
          "name": "_icoTokenPrice",
          "type": "uint256"
        },
        {
          "name": "_icoSince",
          "type": "uint256"
        },
        {
          "name": "_icoTill",
          "type": "uint256"
        },
        {
          "name": "_goalIcoMinSoldTokens",
          "type": "uint256"
        }
      ],
      "name": "setSalePhases",
      "outputs": [],
      "payable": false,
      "stateMutability": "nonpayable",
      "type": "function"
    },
    {
      "constant": true,
      "inputs": [
        {
          "name": "_time",
          "type": "uint256"
        }
      ],
      "name": "getCurrentPhase",
      "outputs": [
        {
          "name": "",
          "type": "uint8"
        }
      ],
      "payable": false,
      "stateMutability": "view",
      "type": "function"
    },
    {
      "constant": true,
      "inputs": [
        {
          "name": "time",
          "type": "uint256"
        },
        {
          "name": "amount",
          "type": "uint256"
        }
      ],
      "name": "getBonusAmount",
      "outputs": [
        {
          "name": "",
          "type": "uint256"
        }
      ],
      "payable": false,
      "stateMutability": "view",
      "type": "function"
    },
    {
      "constant": false,
      "inputs": [
        {
          "name": "_phaseId",
          "type": "uint8"
        },
        {
          "name": "_address",
          "type": "address"
        }
      ],
      "name": "addToWhitelist",
      "outputs": [],
      "payable": false,
      "stateMutability": "nonpayable",
      "type": "function"
    },
    {
      "constant": false,
      "inputs": [
        {
          "name": "_phaseId",
          "type": "uint8"
        },
        {
          "name": "_address",
          "type": "address"
        }
      ],
      "name": "removeFromWhitelist",
      "outputs": [],
      "payable": false,
      "stateMutability": "nonpayable",
      "type": "function"
    },
    {
      "constant": false,
      "inputs": [
        {
          "name": "_phaseId",
          "type": "uint8"
        },
        {
          "name": "_value",
          "type": "uint256"
        }
      ],
      "name": "setTokenPrice",
      "outputs": [],
      "payable": false,
      "stateMutability": "nonpayable",
      "type": "function"
    },
    {
      "constant": false,
      "inputs": [
        {
          "name": "_phaseId",
          "type": "uint8"
        },
        {
          "name": "_since",
          "type": "uint256"
        },
        {
          "name": "_till",
          "type": "uint256"
        }
      ],
      "name": "setPeriod",
      "outputs": [],
      "payable": false,
      "stateMutability": "nonpayable",
      "type": "function"
    },
    {
      "constant": false,
      "inputs": [
        {
          "name": "_locked",
          "type": "bool"
        }
      ],
      "name": "setLocked",
      "outputs": [],
      "payable": false,
      "stateMutability": "nonpayable",
      "type": "function"
    },
    {
      "constant": false,
      "inputs": [
        {
          "name": "_phaseId",
          "type": "uint8"
        }
      ],
      "name": "finished",
      "outputs": [
        {
          "name": "",
          "type": "bool"
        }
      ],
      "payable": false,
      "stateMutability": "nonpayable",
      "type": "function"
    },
    {
      "constant": false,
      "inputs": [],
      "name": "refund",
      "outputs": [
        {
          "name": "",
          "type": "bool"
        }
      ],
      "payable": false,
      "stateMutability": "nonpayable",
      "type": "function"
    },
    {
      "constant": false,
      "inputs": [
        {
          "name": "holder",
          "type": "address"
        }
      ],
      "name": "refundFor",
      "outputs": [
        {
          "name": "",
          "type": "bool"
        }
      ],
      "payable": false,
      "stateMutability": "nonpayable",
      "type": "function"
    },
    {
      "constant": false,
      "inputs": [],
      "name": "transferEthers",
      "outputs": [],
      "payable": false,
      "stateMutability": "nonpayable",
      "type": "function"
    },
    {
      "constant": false,
      "inputs": [
        {
          "name": "_value",
          "type": "bool"
        }
      ],
      "name": "setWhitelistStatus",
      "outputs": [],
      "payable": false,
      "stateMutability": "nonpayable",
      "type": "function"
    },
    {
      "constant": false,
      "inputs": [
        {
          "name": "_phaseId",
          "type": "uint8"
        },
        {
          "name": "_min",
          "type": "uint256"
        },
        {
          "name": "_max",
          "type": "uint256"
        }
      ],
      "name": "setMinMaxContribution",
      "outputs": [],
      "payable": false,
      "stateMutability": "nonpayable",
      "type": "function"
    },
    {
      "constant": true,
      "inputs": [
        {
          "name": "_address",
          "type": "address"
        },
        {
          "name": "_time",
          "type": "uint256"
        },
        {
          "name": "_value",
          "type": "uint256"
        }
      ],
      "name": "calculateTokensAmount",
      "outputs": [
        {
          "name": "",
          "type": "uint256"
        }
      ],
      "payable": false,
      "stateMutability": "view",
      "type": "function"
    },
    {
      "constant": true,
      "inputs": [
        {
          "name": "_phaseId",
          "type": "uint8"
        }
      ],
      "name": "isActive",
      "outputs": [
        {
          "name": "",
          "type": "bool"
        }
      ],
      "payable": false,
      "stateMutability": "view",
      "type": "function"
    },
    {
      "constant": true,
      "inputs": [
        {
          "name": "_phaseId",
          "type": "uint8"
        }
      ],
      "name": "withinPeriod",
      "outputs": [
        {
          "name": "",
          "type": "bool"
        }
      ],
      "payable": false,
      "stateMutability": "view",
      "type": "function"
    }
  ],
  "bytecode": "0x60606040526040805190810160405280600981526020017f455243323020302e3100000000000000000000000000000000000000000000008152506001908051906020019062000051929190620004ff565b5034156200005e57600080fd5b604051620038a9380380620038a983398101604052808051906020019091908051906020019091908051906020019091908051820191906020018051820191906020018051906020019091908051906020019091905050818585601286600086336000806101000a81548173ffffffffffffffffffffffffffffffffffffffff021916908373ffffffffffffffffffffffffffffffffffffffff160217905550856005819055508115620001565785600860003373ffffffffffffffffffffffffffffffffffffffff1673ffffffffffffffffffffffffffffffffffffffff168152602001908152602001600020819055506200019b565b85600860003073ffffffffffffffffffffffffffffffffffffffff1673ffffffffffffffffffffffffffffffffffffffff168152602001908152602001600020819055505b8460029080519060200190620001b3929190620004ff565b508260039080519060200190620001cc929190620004ff565b5083600460006101000a81548160ff021916908360ff16021790555080600660006101000a81548160ff021916908315150217905550436007819055505050505050506001600a60008373ffffffffffffffffffffffffffffffffffffffff1673ffffffffffffffffffffffffffffffffffffffff16815260200190815260200160002060006101000a81548160ff021916908315150217905550506040805190810160405280600981526020017f527966747320302e31000000000000000000000000000000000000000000000081525060019080519060200190620002b5929190620004ff565b50848611151515620002c657600080fd5b85600860008973ffffffffffffffffffffffffffffffffffffffff1673ffffffffffffffffffffffffffffffffffffffff16815260200190815260200160002081905550620003ab600860008973ffffffffffffffffffffffffffffffffffffffff1673ffffffffffffffffffffffffffffffffffffffff16815260200190815260200160002054600860003073ffffffffffffffffffffffffffffffffffffffff1673ffffffffffffffffffffffffffffffffffffffff16815260200190815260200160002054620004e56401000000000262002b37179091906401000000009004565b600860003073ffffffffffffffffffffffffffffffffffffffff1673ffffffffffffffffffffffffffffffffffffffff16815260200190815260200160002081905550600860003073ffffffffffffffffffffffffffffffffffffffff1673ffffffffffffffffffffffffffffffffffffffff16815260200190815260200160002054600b819055508673ffffffffffffffffffffffffffffffffffffffff163073ffffffffffffffffffffffffffffffffffffffff167fddf252ad1be2c89b69c2b068fc378daa952ba7f163c4a11628f55a4df523b3ef600860008b73ffffffffffffffffffffffffffffffffffffffff1673ffffffffffffffffffffffffffffffffffffffff168152602001908152602001600020546040518082815260200191505060405180910390a350505050505050620005ae565b6000828211151515620004f457fe5b818303905092915050565b828054600181600116156101000203166002900490600052602060002090601f016020900481019282601f106200054257805160ff191683800117855562000573565b8280016001018555821562000573579182015b828111156200057257825182559160200191906001019062000555565b5b50905062000582919062000586565b5090565b620005ab91905b80821115620005a75760008160009055506001016200058d565b5090565b90565b6132eb80620005be6000396000f300606060405260043610610204576000357c0100000000000000000000000000000000000000000000000000000000900463ffffffff1680630200b10d146102be57806302ce5813146102e757806303b964711461031457806306fdde0314610373578063095ea7b314610401578063176345141461045b57806318160ddd14610484578063211e28b6146104ad57806321a5dcfe146104d257806323b872dd146105145780632e34c1241461058d5780632e37eef6146105d2578063313ce5671461064557806334f534ff14610674578063376ff7f0146106c15780633a7ab4f4146106ee5780633bb5a02c146107265780634a9991181461075f5780635377f0471461078457806356f6e184146107d5578063572e85ec1461081a57806357aba4ab14610857578063590e1ae3146108a85780635a263ef1146108d55780635a3b7e42146109135780635cd72b15146109a15780636d46d660146109da57806370a0823114610a185780638196483614610a655780638da5cb5b14610a9d57806395d89b4114610af25780639983c6a114610b80578063a9059cbb14610bbe578063b0f209fc14610c00578063c8e6dcb114610c74578063ce8ba77e14610cb4578063cf30901214610ce3578063cf8271b314610d10578063d271011d14610d39578063d394509c14610d4e578063dd62ed3e14610d7b578063f2fde38b14610de7575b6000610211334234610e20565b90506001151581151514151561022657600080fd5b61027834600e60003373ffffffffffffffffffffffffffffffffffffffff1673ffffffffffffffffffffffffffffffffffffffff1681526020019081526020016000205461121190919063ffffffff16565b600e60003373ffffffffffffffffffffffffffffffffffffffff1673ffffffffffffffffffffffffffffffffffffffff1681526020019081526020016000208190555050005b34156102c957600080fd5b6102d161122d565b6040518082815260200191505060405180910390f35b34156102f257600080fd5b6102fa611233565b604051808215151515815260200191505060405180910390f35b341561031f57600080fd5b61035d600480803573ffffffffffffffffffffffffffffffffffffffff16906020019091908035906020019091908035906020019091905050611246565b6040518082815260200191505060405180910390f35b341561037e57600080fd5b610386611384565b6040518080602001828103825283818151815260200191508051906020019080838360005b838110156103c65780820151818401526020810190506103ab565b50505050905090810190601f1680156103f35780820380516001836020036101000a031916815260200191505b509250505060405180910390f35b341561040c57600080fd5b610441600480803573ffffffffffffffffffffffffffffffffffffffff16906020019091908035906020019091905050611422565b604051808215151515815260200191505060405180910390f35b341561046657600080fd5b61046e61154b565b6040518082815260200191505060405180910390f35b341561048f57600080fd5b610497611551565b6040518082815260200191505060405180910390f35b34156104b857600080fd5b6104d060048080351515906020019091905050611557565b005b34156104dd57600080fd5b610512600480803573ffffffffffffffffffffffffffffffffffffffff169060200190919080359060200190919050506115cf565b005b341561051f57600080fd5b610573600480803573ffffffffffffffffffffffffffffffffffffffff1690602001909190803573ffffffffffffffffffffffffffffffffffffffff1690602001909190803590602001909190505061166d565b604051808215151515815260200191505060405180910390f35b341561059857600080fd5b6105d0600480803560ff1690602001909190803573ffffffffffffffffffffffffffffffffffffffff169060200190919050506117c5565b005b34156105dd57600080fd5b6105f360048080359060200190919050506118b9565b604051808a815260200189815260200188815260200187815260200186815260200185815260200184815260200183815260200182151515158152602001995050505050505050505060405180910390f35b341561065057600080fd5b610658611923565b604051808260ff1660ff16815260200191505060405180910390f35b341561067f57600080fd5b6106ab600480803573ffffffffffffffffffffffffffffffffffffffff16906020019091905050611936565b6040518082815260200191505060405180910390f35b34156106cc57600080fd5b6106d461194e565b604051808215151515815260200191505060405180910390f35b34156106f957600080fd5b610724600480803560ff16906020019091908035906020019091908035906020019091905050611961565b005b341561073157600080fd5b61075d600480803573ffffffffffffffffffffffffffffffffffffffff16906020019091905050611a0e565b005b341561076a57600080fd5b61078260048080351515906020019091905050611ac4565b005b341561078f57600080fd5b6107bb600480803573ffffffffffffffffffffffffffffffffffffffff16906020019091905050611b3c565b604051808215151515815260200191505060405180910390f35b34156107e057600080fd5b610818600480803560ff1690602001909190803573ffffffffffffffffffffffffffffffffffffffff16906020019091905050611b5c565b005b341561082557600080fd5b61083b6004808035906020019091905050611c50565b604051808260ff1660ff16815260200191505060405180910390f35b341561086257600080fd5b61088e600480803573ffffffffffffffffffffffffffffffffffffffff16906020019091905050611d0b565b604051808215151515815260200191505060405180910390f35b34156108b357600080fd5b6108bb611d1d565b604051808215151515815260200191505060405180910390f35b34156108e057600080fd5b6108f9600480803560ff16906020019091905050611d2d565b604051808215151515815260200191505060405180910390f35b341561091e57600080fd5b610926611f0c565b6040518080602001828103825283818151815260200191508051906020019080838360005b8381101561096657808201518184015260208101905061094b565b50505050905090810190601f1680156109935780820380516001836020036101000a031916815260200191505b509250505060405180910390f35b34156109ac57600080fd5b6109d8600480803573ffffffffffffffffffffffffffffffffffffffff16906020019091905050611faa565b005b34156109e557600080fd5b6109fe600480803560ff16906020019091905050612060565b604051808215151515815260200191505060405180910390f35b3415610a2357600080fd5b610a4f600480803573ffffffffffffffffffffffffffffffffffffffff169060200190919050506120d6565b6040518082815260200191505060405180910390f35b3415610a7057600080fd5b610a9b600480803560ff169060200190919080359060200190919080359060200190919050506120ee565b005b3415610aa857600080fd5b610ab06121b5565b604051808273ffffffffffffffffffffffffffffffffffffffff1673ffffffffffffffffffffffffffffffffffffffff16815260200191505060405180910390f35b3415610afd57600080fd5b610b056121da565b6040518080602001828103825283818151815260200191508051906020019080838360005b83811015610b45578082015181840152602081019050610b2a565b50505050905090810190601f168015610b725780820380516001836020036101000a031916815260200191505b509250505060405180910390f35b3415610b8b57600080fd5b610ba4600480803560ff16906020019091905050612278565b604051808215151515815260200191505060405180910390f35b3415610bc957600080fd5b610bfe600480803573ffffffffffffffffffffffffffffffffffffffff169060200190919080359060200190919050506122d3565b005b3415610c0b57600080fd5b610c726004808035906020019091908035906020019091908035906020019091908035906020019091908035906020019091908035906020019091908035906020019091908035906020019091908035906020019091908035906020019091905050612334565b005b3415610c7f57600080fd5b610c9e60048080359060200190919080359060200190919050506125fa565b6040518082815260200191505060405180910390f35b3415610cbf57600080fd5b610ce1600480803560ff1690602001909190803590602001909190505061270c565b005b3415610cee57600080fd5b610cf66127af565b604051808215151515815260200191505060405180910390f35b3415610d1b57600080fd5b610d236127c2565b6040518082815260200191505060405180910390f35b3415610d4457600080fd5b610d4c6127c8565b005b3415610d5957600080fd5b610d616129aa565b604051808215151515815260200191505060405180910390f35b3415610d8657600080fd5b610dd1600480803573ffffffffffffffffffffffffffffffffffffffff1690602001909190803573ffffffffffffffffffffffffffffffffffffffff169060200190919050506129bd565b6040518082815260200191505060405180910390f35b3415610df257600080fd5b610e1e600480803573ffffffffffffffffffffffffffffffffffffffff169060200190919050506129e2565b005b600080600080600060011515600660009054906101000a900460ff1615151415610e4d5760009450611206565b610e5687611c50565b9350600f8460ff16815481101515610e6a57fe5b90600052602060002090600a020192506000861415610e8c5760009450611206565b610e97888888611246565b91506000821415610eab5760009450611206565b610ec7610eb888846125fa565b8361121190919063ffffffff16565b90508083600701540183600301541015610ee45760009450611206565b610efb82846007015461121190919063ffffffff16565b836007018190555080600860003073ffffffffffffffffffffffffffffffffffffffff1673ffffffffffffffffffffffffffffffffffffffff168152602001908152602001600020541015610f535760009450611206565b600860008973ffffffffffffffffffffffffffffffffffffffff1673ffffffffffffffffffffffffffffffffffffffff1681526020019081526020016000205481600860008b73ffffffffffffffffffffffffffffffffffffffff1673ffffffffffffffffffffffffffffffffffffffff16815260200190815260200160002054011015610fe45760009450611206565b61103681600860003073ffffffffffffffffffffffffffffffffffffffff1673ffffffffffffffffffffffffffffffffffffffff16815260200190815260200160002054612b3790919063ffffffff16565b600860003073ffffffffffffffffffffffffffffffffffffffff1673ffffffffffffffffffffffffffffffffffffffff168152602001908152602001600020819055506110cb81600860008b73ffffffffffffffffffffffffffffffffffffffff1673ffffffffffffffffffffffffffffffffffffffff1681526020019081526020016000205461121190919063ffffffff16565b600860008a73ffffffffffffffffffffffffffffffffffffffff1673ffffffffffffffffffffffffffffffffffffffff1681526020019081526020016000208190555061112386600c5461121190919063ffffffff16565b600c819055507f5f7675b09617d2c9fa4fd13058ee5877a9538f626b0308816736e83748a45040888783604051808473ffffffffffffffffffffffffffffffffffffffff1673ffffffffffffffffffffffffffffffffffffffff168152602001838152602001828152602001935050505060405180910390a18773ffffffffffffffffffffffffffffffffffffffff163073ffffffffffffffffffffffffffffffffffffffff167fddf252ad1be2c89b69c2b068fc378daa952ba7f163c4a11628f55a4df523b3ef836040518082815260200191505060405180910390a3600194505b505050509392505050565b6000818301905082811015151561122457fe5b80905092915050565b600c5481565b600d60019054906101000a900460ff1681565b600080600061125485611c50565b9150600f8260ff1681548110151561126857fe5b90600052602060002090600a02019050600d60019054906101000a900460ff161515600115151480156112ed5750600015158160090160008873ffffffffffffffffffffffffffffffffffffffff1673ffffffffffffffffffffffffffffffffffffffff16815260200190815260200160002060009054906101000a900460ff161515145b156112fb576000925061137b565b8060080160009054906101000a900460ff161561131b576000925061137b565b6113258285612b50565b151560001515141561133a576000925061137b565b611378816000015461136a600460009054906101000a900460ff1660ff16600a0a87612c1e90919063ffffffff16565b612c5690919063ffffffff16565b92505b50509392505050565b60028054600181600116156101000203166002900480601f01602080910402602001604051908101604052809291908181526020018280546001816001161561010002031660029004801561141a5780601f106113ef5761010080835404028352916020019161141a565b820191906000526020600020905b8154815290600101906020018083116113fd57829003601f168201915b505050505081565b6000600260046020820201600036905014151561143b57fe5b600660009054906101000a900460ff16156114595760009150611544565b82600960003373ffffffffffffffffffffffffffffffffffffffff1673ffffffffffffffffffffffffffffffffffffffff16815260200190815260200160002060008673ffffffffffffffffffffffffffffffffffffffff1673ffffffffffffffffffffffffffffffffffffffff168152602001908152602001600020819055508373ffffffffffffffffffffffffffffffffffffffff163373ffffffffffffffffffffffffffffffffffffffff167f8c5be1e5ebec7d5bd14f71427d1e84f3dd0314c0f7b2291e5b200ac8c7c3b925856040518082815260200191505060405180910390a3600191505b5092915050565b60075481565b60055481565b6000809054906101000a900473ffffffffffffffffffffffffffffffffffffffff1673ffffffffffffffffffffffffffffffffffffffff163373ffffffffffffffffffffffffffffffffffffffff161415156115b257600080fd5b80600660006101000a81548160ff02191690831515021790555050565b600060026004602082020160003690501415156115e857fe5b600a60003373ffffffffffffffffffffffffffffffffffffffff1673ffffffffffffffffffffffffffffffffffffffff16815260200190815260200160002060009054906101000a900460ff1615156001151514151561164757600080fd5b611652844285610e20565b91506001151582151514151561166757600080fd5b50505050565b600080600660009054906101000a900460ff161561168e57600091506117bd565b82600960008773ffffffffffffffffffffffffffffffffffffffff1673ffffffffffffffffffffffffffffffffffffffff16815260200190815260200160002060003373ffffffffffffffffffffffffffffffffffffffff1673ffffffffffffffffffffffffffffffffffffffff16815260200190815260200160002054101561171b57600091506117bd565b611726858585612c6c565b905080156117b95782600960008773ffffffffffffffffffffffffffffffffffffffff1673ffffffffffffffffffffffffffffffffffffffff16815260200190815260200160002060003373ffffffffffffffffffffffffffffffffffffffff1673ffffffffffffffffffffffffffffffffffffffff168152602001908152602001600020600082825403925050819055505b8091505b509392505050565b60008060009054906101000a900473ffffffffffffffffffffffffffffffffffffffff1673ffffffffffffffffffffffffffffffffffffffff163373ffffffffffffffffffffffffffffffffffffffff1614151561182257600080fd5b8260ff16600f8054905011151561183857600080fd5b600f8360ff1681548110151561184a57fe5b90600052602060002090600a0201905060008160090160008473ffffffffffffffffffffffffffffffffffffffff1673ffffffffffffffffffffffffffffffffffffffff16815260200190815260200160002060006101000a81548160ff021916908315150217905550505050565b600f818154811015156118c857fe5b90600052602060002090600a02016000915090508060000154908060010154908060020154908060030154908060040154908060050154908060060154908060070154908060080160009054906101000a900460ff16905089565b600460009054906101000a900460ff1681565b600e6020528060005260406000206000915090505481565b600d60009054906101000a900460ff1681565b60008060009054906101000a900473ffffffffffffffffffffffffffffffffffffffff1673ffffffffffffffffffffffffffffffffffffffff163373ffffffffffffffffffffffffffffffffffffffff161415156119be57600080fd5b8360ff16600f805490501115156119d457600080fd5b600f8460ff168154811015156119e657fe5b90600052602060002090600a0201905082816001018190555081816002018190555050505050565b6000809054906101000a900473ffffffffffffffffffffffffffffffffffffffff1673ffffffffffffffffffffffffffffffffffffffff163373ffffffffffffffffffffffffffffffffffffffff16141515611a6957600080fd5b6000600a60008373ffffffffffffffffffffffffffffffffffffffff1673ffffffffffffffffffffffffffffffffffffffff16815260200190815260200160002060006101000a81548160ff02191690831515021790555050565b6000809054906101000a900473ffffffffffffffffffffffffffffffffffffffff1673ffffffffffffffffffffffffffffffffffffffff163373ffffffffffffffffffffffffffffffffffffffff16141515611b1f57600080fd5b80600d60016101000a81548160ff02191690831515021790555050565b600a6020528060005260406000206000915054906101000a900460ff1681565b60008060009054906101000a900473ffffffffffffffffffffffffffffffffffffffff1673ffffffffffffffffffffffffffffffffffffffff163373ffffffffffffffffffffffffffffffffffffffff16141515611bb957600080fd5b8260ff16600f80549050111515611bcf57600080fd5b600f8360ff16815481101515611be157fe5b90600052602060002090600a0201905060018160090160008473ffffffffffffffffffffffffffffffffffffffff1673ffffffffffffffffffffffffffffffffffffffff16815260200190815260200160002060006101000a81548160ff021916908315150217905550505050565b600080600060011515600d60029054906101000a900460ff161515141515611c7757600080fd5b6000841415611c8d57600f805490509250611d04565b600091505b600f805490508260ff161015611cfb57600f8260ff16815481101515611cb457fe5b90600052602060002090600a020190508381600101541115611cd557611cee565b8381600201541015611ce657611cee565b819250611d04565b8180600101925050611c92565b600f8054905092505b5050919050565b6000611d1682612d10565b9050919050565b6000611d2833612d10565b905090565b60008060008360ff16600f80549050111515611d4857600080fd5b600f8460ff16815481101515611d5a57fe5b90600052602060002090600a02019150600115158260080160009054906101000a900460ff1615151415611d915760019250611f05565b8160020154421180611daa575081600701548260030154145b80611df457506000600860003073ffffffffffffffffffffffffffffffffffffffff1673ffffffffffffffffffffffffffffffffffffffff16815260200190815260200160002054145b15611ef05760018460ff161415611e98576000600860003073ffffffffffffffffffffffffffffffffffffffff1673ffffffffffffffffffffffffffffffffffffffff1681526020019081526020016000208190555081600401548260070154101515611e7b576000600d60006101000a81548160ff021916908315150217905550611e97565b6001600d60006101000a81548160ff0219169083151502179055505b5b60008460ff161415611ed257816007015482600301540390506000811115611ed157611ec381612f6f565b816007015482600301819055505b5b60018260080160006101000a81548160ff0219169083151502179055505b8160080160009054906101000a900460ff1692505b5050919050565b60018054600181600116156101000203166002900480601f016020809104026020016040519081016040528092919081815260200182805460018160011615610100020316600290048015611fa25780601f10611f7757610100808354040283529160200191611fa2565b820191906000526020600020905b815481529060010190602001808311611f8557829003601f168201915b505050505081565b6000809054906101000a900473ffffffffffffffffffffffffffffffffffffffff1673ffffffffffffffffffffffffffffffffffffffff163373ffffffffffffffffffffffffffffffffffffffff1614151561200557600080fd5b6001600a60008373ffffffffffffffffffffffffffffffffffffffff1673ffffffffffffffffffffffffffffffffffffffff16815260200190815260200160002060006101000a81548160ff02191690831515021790555050565b6000808260ff16600f8054905011151561207957600080fd5b600f8360ff1681548110151561208b57fe5b90600052602060002090600a02019050600081600701541180156120b6575080600301548160070154145b156120c457600091506120d0565b6120cd83612278565b91505b50919050565b60086020528060005260406000206000915090505481565b60008060009054906101000a900473ffffffffffffffffffffffffffffffffffffffff1673ffffffffffffffffffffffffffffffffffffffff163373ffffffffffffffffffffffffffffffffffffffff1614151561214b57600080fd5b8360ff16600f8054905011151561216157600080fd5b600f8460ff1681548110151561217357fe5b90600052602060002090600a0201905081831115806121925750600082145b151561219d57600080fd5b82816005018190555081816006018190555050505050565b6000809054906101000a900473ffffffffffffffffffffffffffffffffffffffff1681565b60038054600181600116156101000203166002900480601f0160208091040260200160405190810160405280929190818152602001828054600181600116156101000203166002900480156122705780601f1061224557610100808354040283529160200191612270565b820191906000526020600020905b81548152906001019060200180831161225357829003601f168201915b505050505081565b6000808260ff16600f8054905011151561229157600080fd5b600f8360ff168154811015156122a357fe5b90600052602060002090600a02019050806001015442101580156122cb575080600201544211155b915050919050565b600060026004602082020160003690501415156122ec57fe5b60001515600660009054906101000a900460ff16151514151561230e57600080fd5b612319338585612c6c565b91506001151582151514151561232e57600080fd5b50505050565b6000809054906101000a900473ffffffffffffffffffffffffffffffffffffffff1673ffffffffffffffffffffffffffffffffffffffff163373ffffffffffffffffffffffffffffffffffffffff1614151561238f57600080fd5b60001515600d60029054906101000a900460ff1615151415156123b157600080fd5b600b54871015156123c157600080fd5b86600b540381111515156123d457600080fd5b87891080156123e257508183105b80156123ee5750828811155b15156123f957600080fd5b84861115151561240857600080fd5b6001600d60026101000a81548160ff021916908315150217905550600f8054806001018281612437919061321a565b91600052602060002090600a02016000610120604051908101604052808e81526020018d81526020018c81526020018b8152602001600081526020018a815260200189815260200160008152602001600015158152509091909150600082015181600001556020820151816001015560408201518160020155606082015181600301556080820151816004015560a0820151816005015560c0820151816006015560e082015181600701556101008201518160080160006101000a81548160ff021916908315150217905550505050600f805480600101828161251a919061321a565b91600052602060002090600a02016000610120604051908101604052808881526020018781526020018681526020018b600b54038152602001858152602001600081526020016000815260200160008152602001600015158152509091909150600082015181600001556020820151816001015560408201518160020155606082015181600301556080820151816004015560a0820151816005015560c0820151816006015560e082015181600701556101008201518160080160006101000a81548160ff02191690831515021790555050505050505050505050505050565b600080600061260842611c50565b915060018260ff161415156126205760009250612704565b600f8260ff1681548110151561263257fe5b90600052602060002090600a02019050612a30816001015486031115156126815761267a606461266c601987612c1e90919063ffffffff16565b612c5690919063ffffffff16565b9250612704565b615460816001015486031115156126c0576126b960646126ab600f87612c1e90919063ffffffff16565b612c5690919063ffffffff16565b9250612704565b617e90816001015486031115156126ff576126f860646126ea600587612c1e90919063ffffffff16565b612c5690919063ffffffff16565b9250612704565b600092505b505092915050565b60008060009054906101000a900473ffffffffffffffffffffffffffffffffffffffff1673ffffffffffffffffffffffffffffffffffffffff163373ffffffffffffffffffffffffffffffffffffffff1614151561276957600080fd5b8260ff16600f8054905011151561277f57600080fd5b600f8360ff1681548110151561279157fe5b90600052602060002090600a02019050818160000181905550505050565b600660009054906101000a900460ff1681565b600b5481565b60008060009054906101000a900473ffffffffffffffffffffffffffffffffffffffff1673ffffffffffffffffffffffffffffffffffffffff163373ffffffffffffffffffffffffffffffffffffffff1614151561282557600080fd5b61282f6001612060565b15156000151514151561284157600080fd5b600f600181548110151561285157fe5b90600052602060002090600a0201905042816002015411151561292e57600115158160080160009054906101000a900460ff1615151480156128a6575060001515600d60009054906101000a900460ff161515145b15156128b157600080fd5b6000809054906101000a900473ffffffffffffffffffffffffffffffffffffffff1673ffffffffffffffffffffffffffffffffffffffff166108fc3073ffffffffffffffffffffffffffffffffffffffff16319081150290604051600060405180830381858888f19350505050151561292957600080fd5b6129a7565b6000809054906101000a900473ffffffffffffffffffffffffffffffffffffffff1673ffffffffffffffffffffffffffffffffffffffff166108fc3073ffffffffffffffffffffffffffffffffffffffff16319081150290604051600060405180830381858888f1935050505015156129a657600080fd5b5b50565b600d60029054906101000a900460ff1681565b6009602052816000526040600020602052806000526040600020600091509150505481565b6000809054906101000a900473ffffffffffffffffffffffffffffffffffffffff1673ffffffffffffffffffffffffffffffffffffffff163373ffffffffffffffffffffffffffffffffffffffff16141515612a3d57600080fd5b600073ffffffffffffffffffffffffffffffffffffffff168173ffffffffffffffffffffffffffffffffffffffff1614151515612a7957600080fd5b8073ffffffffffffffffffffffffffffffffffffffff166000809054906101000a900473ffffffffffffffffffffffffffffffffffffffff1673ffffffffffffffffffffffffffffffffffffffff167f8be0079c531659141344cd1fd0a4f28419497f9722a3daafe3b4186f6b6457e060405160405180910390a3806000806101000a81548173ffffffffffffffffffffffffffffffffffffffff021916908373ffffffffffffffffffffffffffffffffffffffff16021790555050565b6000828211151515612b4557fe5b818303905092915050565b6000808360ff16600f80549050111515612b6957600080fd5b600f8460ff16815481101515612b7b57fe5b90600052602060002090600a0201905060008160050154148015612ba3575060008160060154145b15612bb15760019150612c17565b82816005015411158015612bc9575080600601548311155b15612bd75760019150612c17565b806006015483118015612bef57506000816006015414155b15612bfd5760009150612c17565b8060050154831015612c125760009150612c17565b600191505b5092915050565b600080831415612c315760009050612c50565b8183029050818382811515612c4257fe5b04141515612c4c57fe5b8090505b92915050565b60008183811515612c6357fe5b04905092915050565b600080600f6001815481101515612c7f57fe5b90600052602060002090600a020190508060010154421115612cfb57612ca56001612060565b151560001515141515612cb757600080fd5b600115158160080160009054906101000a900460ff161515148015612cef575060001515600d60009054906101000a900460ff161515145b1515612cfa57600080fd5b5b612d06858585612fb4565b9150509392505050565b600080600080600f6001815481101515612d2657fe5b90600052602060002090600a02019250600115158360080160009054906101000a900460ff161515148015612d6e575060011515600d60009054906101000a900460ff161515145b1515612d7957600080fd5b600e60008673ffffffffffffffffffffffffffffffffffffffff1673ffffffffffffffffffffffffffffffffffffffff168152602001908152602001600020549150600860008673ffffffffffffffffffffffffffffffffffffffff1673ffffffffffffffffffffffffffffffffffffffff168152602001908152602001600020549050600082148015612e0d5750600081145b15612e1b5760009350612f67565b6000600860008773ffffffffffffffffffffffffffffffffffffffff1673ffffffffffffffffffffffffffffffffffffffff168152602001908152602001600020819055506000600e60008773ffffffffffffffffffffffffffffffffffffffff1673ffffffffffffffffffffffffffffffffffffffff168152602001908152602001600020819055506000821115612eef578473ffffffffffffffffffffffffffffffffffffffff166108fc839081150290604051600060405180830381858888f193505050501515612eee57600080fd5b5b7f73f04af9dcc582a923ec15d3eea990fe34adabfff2879e28d44572e01a54abb6858383604051808473ffffffffffffffffffffffffffffffffffffffff1673ffffffffffffffffffffffffffffffffffffffff168152602001838152602001828152602001935050505060405180910390a1600193505b505050919050565b6000600f6001815481101515612f8157fe5b90600052602060002090600a02019050612fa882826003015461121190919063ffffffff16565b81600301819055505050565b60008082141561302d578273ffffffffffffffffffffffffffffffffffffffff168473ffffffffffffffffffffffffffffffffffffffff167fddf252ad1be2c89b69c2b068fc378daa952ba7f163c4a11628f55a4df523b3ef60006040518082815260200191505060405180910390a360019050613213565b81600860008673ffffffffffffffffffffffffffffffffffffffff1673ffffffffffffffffffffffffffffffffffffffff16815260200190815260200160002054101561307d5760009050613213565b600860008473ffffffffffffffffffffffffffffffffffffffff1673ffffffffffffffffffffffffffffffffffffffff1681526020019081526020016000205482600860008673ffffffffffffffffffffffffffffffffffffffff1673ffffffffffffffffffffffffffffffffffffffff168152602001908152602001600020540111151561310f5760009050613213565b81600860008673ffffffffffffffffffffffffffffffffffffffff1673ffffffffffffffffffffffffffffffffffffffff1681526020019081526020016000206000828254039250508190555081600860008573ffffffffffffffffffffffffffffffffffffffff1673ffffffffffffffffffffffffffffffffffffffff168152602001908152602001600020600082825401925050819055508273ffffffffffffffffffffffffffffffffffffffff168473ffffffffffffffffffffffffffffffffffffffff167fddf252ad1be2c89b69c2b068fc378daa952ba7f163c4a11628f55a4df523b3ef846040518082815260200191505060405180910390a3600190505b9392505050565b81548183558181151161324757600a0281600a028360005260206000209182019101613246919061324c565b5b505050565b6132bc91905b808211156132b85760008082016000905560018201600090556002820160009055600382016000905560048201600090556005820160009055600682016000905560078201600090556008820160006101000a81549060ff021916905550600a01613252565b5090565b905600a165627a7a723058206737e93bb654cc1c548edf6c646d52e0d3f4e18c26748fcc13213d41b26a253c0029",
  "source": "pragma solidity 0.4.21;\n\n\nimport \"./ERC20.sol\";\nimport \"./Multivest.sol\";\nimport \"zeppelin-solidity/contracts/math/SafeMath.sol\";\n\n\ncontract Ryfts is ERC20, Multivest {\n    using SafeMath for uint256;\n\n    uint256 public allocatedTokensForSale;\n    uint256 public collectedEthers;\n    bool public isRefundAllowed;\n    bool public whitelistActive;\n    bool public phasesSet;\n\n    mapping (address => uint256) public sentEthers;\n\n    Phase[] public phases;\n\n    struct Phase {\n        uint256 price;\n        uint256 since;\n        uint256 till;\n        uint256 allocatedTokens;\n        uint256 goalMinSoldTokens;\n        uint256 minContribution;\n        uint256 maxContribution;\n        uint256 soldTokens;\n        bool isFinished;\n        mapping (address => bool) whitelist;\n    }\n\n    event Refund(address holder, uint256 ethers, uint256 tokens);\n\n    function Ryfts(\n        address _reserveAccount,\n        uint256 _reserveAmount,\n        uint256 _initialSupply,\n        string _tokenName,\n        string _tokenSymbol,\n        address _multivestMiddleware,\n        bool _locked\n    )\n        public\n        ERC20(_initialSupply, _tokenName, 18, _tokenSymbol, false, _locked)\n        Multivest(_multivestMiddleware)\n    {\n        standard = \"Ryfts 0.1\";\n        require(_reserveAmount <= _initialSupply);\n\n        balanceOf[_reserveAccount] = _reserveAmount;\n        balanceOf[this] = balanceOf[this].sub(balanceOf[_reserveAccount]);\n\n        allocatedTokensForSale = balanceOf[this];\n    \n        emit Transfer(this, _reserveAccount, balanceOf[_reserveAccount]);\n    }\n\n    function() public payable {\n        bool status = buy(msg.sender, block.timestamp, msg.value);\n        require(status == true);\n\n        sentEthers[msg.sender] = sentEthers[msg.sender].add(msg.value);\n    }\n\n    function setSalePhases(\n        uint256 _preIcoTokenPrice,\n        uint256 _preIcoSince,\n        uint256 _preIcoTill,\n        uint256 _allocatedTokensForPreICO,\n        uint256 _minPreIcoContribution,\n        uint256 _maxPreIcoContribution,\n\n        uint256 _icoTokenPrice,\n        uint256 _icoSince,\n        uint256 _icoTill,\n        uint256  _goalIcoMinSoldTokens\n    ) public onlyOwner {\n        require(phasesSet == false);\n        require(_allocatedTokensForPreICO < allocatedTokensForSale);\n        require(_goalIcoMinSoldTokens <= allocatedTokensForSale - _allocatedTokensForPreICO);\n        require((_preIcoSince < _preIcoTill) && (_icoSince < _icoTill) && (_preIcoTill <= _icoSince));\n        require(_minPreIcoContribution <= _maxPreIcoContribution);\n        phasesSet = true;\n        phases.push(\n            Phase(\n                _preIcoTokenPrice,\n                _preIcoSince,\n                _preIcoTill,\n                _allocatedTokensForPreICO,\n                0,\n                _minPreIcoContribution,\n                _maxPreIcoContribution,\n                0,\n                false\n            )\n        );\n        phases.push(\n            Phase(\n                _icoTokenPrice,\n                _icoSince,\n                _icoTill,\n                allocatedTokensForSale - _allocatedTokensForPreICO,\n                _goalIcoMinSoldTokens,\n                0,\n                0,\n                0,\n                false\n            )\n        );\n    }\n\n    function getCurrentPhase(uint256 _time) public constant returns (uint8) {\n        require(phasesSet == true);\n        if (_time == 0) {\n            return uint8(phases.length);\n        }\n        for (uint8 i = 0; i < phases.length; i++) {\n            Phase storage phase = phases[i];\n            if (phase.since > _time) {\n                continue;\n            }\n\n            if (phase.till < _time) {\n                continue;\n            }\n\n            return i;\n        }\n\n        return uint8(phases.length);\n    }\n\n    function getBonusAmount(uint256 time, uint256 amount) public constant returns (uint256) {\n        uint8 currentPhase = getCurrentPhase(now);\n\n        if (currentPhase != 1) {\n            return 0;\n        }\n        Phase storage phase = phases[currentPhase];\n\n        if (time - phase.since <= 10800) {// 3h since ico => reward 25%\n            return amount.mul(25).div(100);\n        } else if (time - phase.since <= 21600) {// 6h since ico => reward 15%\n            return amount.mul(15).div(100);\n        } else if (time - phase.since <= 32400) {// 9h since ico => reward 5%\n            return amount.mul(5).div(100);\n        }\n\n        return 0;\n    }\n\n    function addToWhitelist(uint8 _phaseId, address _address) public onlyOwner {\n\n        require(phases.length > _phaseId);\n\n        Phase storage phase = phases[_phaseId];\n\n        phase.whitelist[_address] = true;\n\n    }\n\n    function removeFromWhitelist(uint8 _phaseId, address _address) public onlyOwner {\n\n        require(phases.length > _phaseId);\n\n        Phase storage phase = phases[_phaseId];\n\n        phase.whitelist[_address] = false;\n    }\n\n    function setTokenPrice(uint8 _phaseId, uint256 _value) public onlyOwner {\n        require(phases.length > _phaseId);\n        Phase storage phase = phases[_phaseId];\n        phase.price = _value;\n    }\n\n    function setPeriod(uint8 _phaseId, uint256 _since, uint256 _till) public onlyOwner {\n        require(phases.length > _phaseId);\n        Phase storage phase = phases[_phaseId];\n        phase.since = _since;\n        phase.till = _till;\n    }\n\n    function setLocked(bool _locked) public onlyOwner {\n        locked = _locked;\n    }\n\n    function finished(uint8 _phaseId) public returns (bool) {\n        require(phases.length > _phaseId);\n        Phase storage phase = phases[_phaseId];\n\n        if (phase.isFinished == true) {\n            return true;\n        }\n\n        if (block.timestamp > phase.till || phase.allocatedTokens == phase.soldTokens || balanceOf[this] == 0) {\n            if (_phaseId == 1) {\n                balanceOf[this] = 0;\n                if (phase.soldTokens >= phase.goalMinSoldTokens) {\n                    isRefundAllowed = false;\n                } else {\n                    isRefundAllowed = true;\n                }\n            }\n            if (_phaseId == 0) {\n                uint256 unsoldTokens = phase.allocatedTokens - phase.soldTokens;\n                if (unsoldTokens > 0) {\n                    transferUnusedTokensToICO(unsoldTokens);\n                    phase.allocatedTokens = phase.soldTokens;\n                }\n\n            }\n            phase.isFinished = true;\n\n        }\n\n        return phase.isFinished;\n    }\n\n    function refund() public returns (bool) {\n        return refundInternal(msg.sender);\n    }\n\n    function refundFor(address holder) public returns (bool) {\n        return refundInternal(holder);\n    }\n\n    function transferEthers() public onlyOwner {\n        require(false == isActive(1));\n        Phase storage phase = phases[1];\n        if (phase.till <= block.timestamp) {\n            require(phase.isFinished == true && isRefundAllowed == false);\n            owner.transfer(address(this).balance);\n        } else {\n            owner.transfer(address(this).balance);\n        }\n    }\n\n    function setWhitelistStatus(bool _value) public onlyOwner {\n        whitelistActive = _value;\n    }\n\n    function setMinMaxContribution(uint8 _phaseId, uint256 _min, uint256 _max) public onlyOwner {\n        require(phases.length > _phaseId);\n        Phase storage phase = phases[_phaseId];\n        require(_min <= _max || _max == 0);\n\n        phase.minContribution = _min;\n        phase.maxContribution = _max;\n    }\n\n    function calculateTokensAmount(address _address, uint256 _time, uint256 _value) public constant returns(uint256) {\n        uint8 currentPhase = getCurrentPhase(_time);\n        Phase storage phase = phases[currentPhase];\n\n        if (true == whitelistActive && phase.whitelist[_address] == false) {\n            return 0;\n        }\n\n        if (phase.isFinished) {\n            return 0;\n        }\n\n        if (false == checkValuePermission(currentPhase, _value)) {\n            return 0;\n        }\n\n        return _value.mul(uint256(10) ** decimals).div(phase.price);\n    }\n\n    // @return true if sale period is active\n    function isActive(uint8 _phaseId) public constant returns (bool) {\n        require(phases.length > _phaseId);\n        Phase storage phase = phases[_phaseId];\n        if (phase.soldTokens > uint256(0) && phase.soldTokens == phase.allocatedTokens) {\n            return false;\n        }\n        return withinPeriod(_phaseId);\n    }\n\n    // @return true if the transaction can buy tokens\n    function withinPeriod(uint8 _phaseId) public constant returns (bool) {\n        require(phases.length > _phaseId);\n        Phase storage phase = phases[_phaseId];\n        return block.timestamp >= phase.since && block.timestamp <= phase.till;\n    }\n\n    /* solhint-disable code-complexity */\n    function buy(address _address, uint256 _time, uint256 _value) internal returns (bool) {\n        if (locked == true) {\n            return false;\n        }\n        uint8 currentPhase = getCurrentPhase(_time);\n        Phase storage phase = phases[currentPhase];\n        if (_value == 0) {\n            return false;\n        }\n\n        uint256 amount = calculateTokensAmount(_address, _time, _value);\n\n        if (amount == 0) {\n            return false;\n        }\n\n        uint256 totalAmount = amount.add(getBonusAmount(_time, amount));\n\n        if (phase.allocatedTokens < phase.soldTokens + totalAmount) {\n            return false;\n        }\n\n        phase.soldTokens = phase.soldTokens.add(amount);\n\n        if (balanceOf[this] < totalAmount) {\n            return false;\n        }\n\n        if (balanceOf[_address] + totalAmount < balanceOf[_address]) {\n            return false;\n        }\n\n        balanceOf[this] = balanceOf[this].sub(totalAmount);\n        balanceOf[_address] = balanceOf[_address].add(totalAmount);\n\n        collectedEthers = collectedEthers.add(_value);\n\n        emit Contribution(_address, _value, totalAmount);\n        emit Transfer(this, _address, totalAmount);\n        return true;\n    }\n    /* solhint-enable code-complexity */\n\n    function transferInternal(address _from, address _to, uint256 _value) internal returns (bool success) {\n        Phase storage phase = phases[1];\n        if (block.timestamp > phase.since) {\n            require(false == isActive(1));\n            require(phase.isFinished == true && isRefundAllowed == false);\n        }\n\n        return super.transferInternal(_from, _to, _value);\n    }\n\n    function refundInternal(address holder) internal returns (bool success) {\n        Phase storage phase = phases[1];\n        require(phase.isFinished == true && isRefundAllowed == true);\n        uint256 refundEthers = sentEthers[holder];\n        uint256 refundTokens = balanceOf[holder];\n\n        if (refundEthers == 0 && refundTokens == 0) {\n            return false;\n        }\n\n        balanceOf[holder] = 0;\n        sentEthers[holder] = 0;\n\n        if (refundEthers > 0) {\n            holder.transfer(refundEthers);\n        }\n\n        emit Refund(holder, refundEthers, refundTokens);\n\n        return true;\n    }\n\n    function transferUnusedTokensToICO(uint256 _unsoldPreICO) internal {\n        Phase storage phase = phases[1];\n        phase.allocatedTokens = phase.allocatedTokens.add(_unsoldPreICO);\n    }\n\n    function checkValuePermission(uint8 _phaseId, uint256 _value) internal view returns (bool) {\n        require(phases.length > _phaseId);\n        Phase storage phase = phases[_phaseId];\n\n        if (phase.minContribution == 0 && phase.maxContribution == 0) {\n            return true;\n        }\n\n        if (phase.minContribution <= _value && _value <= phase.maxContribution) {\n            return true;\n        }\n\n        if (_value > phase.maxContribution && phase.maxContribution != 0) {\n            return false;\n        }\n\n        if (_value < phase.minContribution) {\n            return false;\n        }\n\n        return true;\n    }\n\n}\n",
  "sourcePath": "/private/var/www/ryfts/ico-contracts/contracts/Ryfts.sol",
  "compiler": {
    "name": "solc",
    "version": "0.4.21+commit.dfe3193c.Emscripten.clang"
  },
  "schemaVersion": "2.0.0",
  "updatedAt": "2018-05-23T08:00:27.880Z"
}